{
  "_format": "hh-sol-artifact-1",
  "contractName": "CarbonCreditSystem",
  "sourceName": "contracts/CarbonCreditSystem.sol",
  "abi": [
    {
      "inputs": [
        {
          "internalType": "address",
          "name": "_carbonCreditNFT",
          "type": "address"
        }
      ],
      "stateMutability": "nonpayable",
      "type": "constructor"
    },
    {
      "inputs": [],
      "name": "AccessControlBadConfirmation",
      "type": "error"
    },
    {
      "inputs": [
        {
          "internalType": "address",
          "name": "account",
          "type": "address"
        },
        {
          "internalType": "bytes32",
          "name": "neededRole",
          "type": "bytes32"
        }
      ],
      "name": "AccessControlUnauthorizedAccount",
      "type": "error"
    },
    {
      "inputs": [],
      "name": "ReentrancyGuardReentrantCall",
      "type": "error"
    },
    {
      "anonymous": false,
      "inputs": [
        {
          "indexed": true,
          "internalType": "uint256",
          "name": "projectId",
          "type": "uint256"
        },
        {
          "indexed": true,
          "internalType": "address",
          "name": "provider",
          "type": "address"
        },
        {
          "indexed": false,
          "internalType": "uint256",
          "name": "amount",
          "type": "uint256"
        }
      ],
      "name": "CreditIssued",
      "type": "event"
    },
    {
      "anonymous": false,
      "inputs": [
        {
          "indexed": true,
          "internalType": "uint256",
          "name": "projectId",
          "type": "uint256"
        },
        {
          "indexed": false,
          "internalType": "uint256",
          "name": "amount",
          "type": "uint256"
        }
      ],
      "name": "CreditsGenerated",
      "type": "event"
    },
    {
      "anonymous": false,
      "inputs": [
        {
          "indexed": true,
          "internalType": "uint256",
          "name": "listingId",
          "type": "uint256"
        },
        {
          "indexed": true,
          "internalType": "uint256",
          "name": "projectId",
          "type": "uint256"
        },
        {
          "indexed": true,
          "internalType": "address",
          "name": "seller",
          "type": "address"
        },
        {
          "indexed": false,
          "internalType": "uint256",
          "name": "amount",
          "type": "uint256"
        },
        {
          "indexed": false,
          "internalType": "uint256",
          "name": "price",
          "type": "uint256"
        }
      ],
      "name": "CreditsListed",
      "type": "event"
    },
    {
      "anonymous": false,
      "inputs": [
        {
          "indexed": true,
          "internalType": "uint256",
          "name": "transactionId",
          "type": "uint256"
        },
        {
          "indexed": true,
          "internalType": "address",
          "name": "buyer",
          "type": "address"
        },
        {
          "indexed": true,
          "internalType": "address",
          "name": "seller",
          "type": "address"
        },
        {
          "indexed": false,
          "internalType": "uint256",
          "name": "projectId",
          "type": "uint256"
        },
        {
          "indexed": false,
          "internalType": "uint256",
          "name": "amount",
          "type": "uint256"
        },
        {
          "indexed": false,
          "internalType": "uint256",
          "name": "totalPrice",
          "type": "uint256"
        }
      ],
      "name": "CreditsPurchased",
      "type": "event"
    },
    {
      "anonymous": false,
      "inputs": [
        {
          "indexed": true,
          "internalType": "uint256",
          "name": "id",
          "type": "uint256"
        },
        {
          "indexed": true,
          "internalType": "address",
          "name": "user",
          "type": "address"
        },
        {
          "indexed": false,
          "internalType": "uint256",
          "name": "amount",
          "type": "uint256"
        },
        {
          "indexed": false,
          "internalType": "string",
          "name": "activity",
          "type": "string"
        }
      ],
      "name": "EmissionRecorded",
      "type": "event"
    },
    {
      "anonymous": false,
      "inputs": [
        {
          "indexed": true,
          "internalType": "uint256",
          "name": "id",
          "type": "uint256"
        },
        {
          "indexed": true,
          "internalType": "address",
          "name": "verifier",
          "type": "address"
        }
      ],
      "name": "EmissionVerified",
      "type": "event"
    },
    {
      "anonymous": false,
      "inputs": [
        {
          "indexed": true,
          "internalType": "uint256",
          "name": "listingId",
          "type": "uint256"
        }
      ],
      "name": "ListingCancelled",
      "type": "event"
    },
    {
      "anonymous": false,
      "inputs": [
        {
          "indexed": true,
          "internalType": "uint256",
          "name": "id",
          "type": "uint256"
        },
        {
          "indexed": true,
          "internalType": "address",
          "name": "provider",
          "type": "address"
        },
        {
          "indexed": false,
          "internalType": "string",
          "name": "name",
          "type": "string"
        },
        {
          "indexed": false,
          "internalType": "uint256",
          "name": "totalCredits",
          "type": "uint256"
        }
      ],
      "name": "ProjectCreated",
      "type": "event"
    },
    {
      "anonymous": false,
      "inputs": [
        {
          "indexed": true,
          "internalType": "uint256",
          "name": "id",
          "type": "uint256"
        },
        {
          "indexed": true,
          "internalType": "address",
          "name": "verifier",
          "type": "address"
        },
        {
          "indexed": false,
          "internalType": "string",
          "name": "reason",
          "type": "string"
        }
      ],
      "name": "ProjectRejected",
      "type": "event"
    },
    {
      "anonymous": false,
      "inputs": [
        {
          "indexed": true,
          "internalType": "uint256",
          "name": "id",
          "type": "uint256"
        },
        {
          "indexed": true,
          "internalType": "address",
          "name": "verifier",
          "type": "address"
        }
      ],
      "name": "ProjectVerified",
      "type": "event"
    },
    {
      "anonymous": false,
      "inputs": [
        {
          "indexed": true,
          "internalType": "bytes32",
          "name": "role",
          "type": "bytes32"
        },
        {
          "indexed": true,
          "internalType": "bytes32",
          "name": "previousAdminRole",
          "type": "bytes32"
        },
        {
          "indexed": true,
          "internalType": "bytes32",
          "name": "newAdminRole",
          "type": "bytes32"
        }
      ],
      "name": "RoleAdminChanged",
      "type": "event"
    },
    {
      "anonymous": false,
      "inputs": [
        {
          "indexed": true,
          "internalType": "bytes32",
          "name": "role",
          "type": "bytes32"
        },
        {
          "indexed": true,
          "internalType": "address",
          "name": "account",
          "type": "address"
        },
        {
          "indexed": true,
          "internalType": "address",
          "name": "sender",
          "type": "address"
        }
      ],
      "name": "RoleGranted",
      "type": "event"
    },
    {
      "anonymous": false,
      "inputs": [
        {
          "indexed": true,
          "internalType": "bytes32",
          "name": "role",
          "type": "bytes32"
        },
        {
          "indexed": true,
          "internalType": "address",
          "name": "account",
          "type": "address"
        },
        {
          "indexed": true,
          "internalType": "address",
          "name": "sender",
          "type": "address"
        }
      ],
      "name": "RoleRevoked",
      "type": "event"
    },
    {
      "inputs": [],
      "name": "DEFAULT_ADMIN_ROLE",
      "outputs": [
        {
          "internalType": "bytes32",
          "name": "",
          "type": "bytes32"
        }
      ],
      "stateMutability": "view",
      "type": "function"
    },
    {
      "inputs": [],
      "name": "PROVIDER_ROLE",
      "outputs": [
        {
          "internalType": "bytes32",
          "name": "",
          "type": "bytes32"
        }
      ],
      "stateMutability": "view",
      "type": "function"
    },
    {
      "inputs": [],
      "name": "VERIFIER_ROLE",
      "outputs": [
        {
          "internalType": "bytes32",
          "name": "",
          "type": "bytes32"
        }
      ],
      "stateMutability": "view",
      "type": "function"
    },
    {
      "inputs": [
        {
          "internalType": "address",
          "name": "account",
          "type": "address"
        }
      ],
      "name": "addProvider",
      "outputs": [],
      "stateMutability": "nonpayable",
      "type": "function"
    },
    {
      "inputs": [
        {
          "internalType": "address",
          "name": "account",
          "type": "address"
        }
      ],
      "name": "addVerifier",
      "outputs": [],
      "stateMutability": "nonpayable",
      "type": "function"
    },
    {
      "inputs": [
        {
          "internalType": "uint256",
          "name": "",
          "type": "uint256"
        }
      ],
      "name": "allEmissionIds",
      "outputs": [
        {
          "internalType": "uint256",
          "name": "",
          "type": "uint256"
        }
      ],
      "stateMutability": "view",
      "type": "function"
    },
    {
      "inputs": [
        {
          "internalType": "uint256",
          "name": "",
          "type": "uint256"
        }
      ],
      "name": "allListingIds",
      "outputs": [
        {
          "internalType": "uint256",
          "name": "",
          "type": "uint256"
        }
      ],
      "stateMutability": "view",
      "type": "function"
    },
    {
      "inputs": [
        {
          "internalType": "uint256",
          "name": "",
          "type": "uint256"
        }
      ],
      "name": "allProjectIds",
      "outputs": [
        {
          "internalType": "uint256",
          "name": "",
          "type": "uint256"
        }
      ],
      "stateMutability": "view",
      "type": "function"
    },
    {
      "inputs": [
        {
          "internalType": "uint256",
          "name": "",
          "type": "uint256"
        }
      ],
      "name": "allTransactionIds",
      "outputs": [
        {
          "internalType": "uint256",
          "name": "",
          "type": "uint256"
        }
      ],
      "stateMutability": "view",
      "type": "function"
    },
    {
      "inputs": [
        {
          "internalType": "uint256",
          "name": "listingId",
          "type": "uint256"
        },
        {
          "internalType": "uint256",
          "name": "amount",
          "type": "uint256"
        }
      ],
      "name": "buyCredits",
      "outputs": [],
      "stateMutability": "payable",
      "type": "function"
    },
    {
      "inputs": [
        {
          "internalType": "uint256",
          "name": "listingId",
          "type": "uint256"
        }
      ],
      "name": "cancelListing",
      "outputs": [],
      "stateMutability": "nonpayable",
      "type": "function"
    },
    {
      "inputs": [],
      "name": "carbonCreditNFT",
      "outputs": [
        {
          "internalType": "contract CarbonCreditNFT",
          "name": "",
          "type": "address"
        }
      ],
      "stateMutability": "view",
      "type": "function"
    },
    {
      "inputs": [
        {
          "internalType": "string",
          "name": "name",
          "type": "string"
        },
        {
          "internalType": "string",
          "name": "description",
          "type": "string"
        },
        {
          "internalType": "string",
          "name": "projectType",
          "type": "string"
        },
        {
          "internalType": "uint256",
          "name": "totalCredits",
          "type": "uint256"
        },
        {
          "internalType": "string",
          "name": "documentHash",
          "type": "string"
        }
      ],
      "name": "createProject",
      "outputs": [],
      "stateMutability": "nonpayable",
      "type": "function"
    },
    {
      "inputs": [
        {
          "internalType": "uint256",
          "name": "",
          "type": "uint256"
        }
      ],
      "name": "emissions",
      "outputs": [
        {
          "internalType": "uint256",
          "name": "id",
          "type": "uint256"
        },
        {
          "internalType": "address",
          "name": "user",
          "type": "address"
        },
        {
          "internalType": "uint256",
          "name": "amount",
          "type": "uint256"
        },
        {
          "internalType": "string",
          "name": "activity",
          "type": "string"
        },
        {
          "internalType": "uint256",
          "name": "timestamp",
          "type": "uint256"
        },
        {
          "internalType": "bool",
          "name": "verified",
          "type": "bool"
        },
        {
          "internalType": "address",
          "name": "verifier",
          "type": "address"
        }
      ],
      "stateMutability": "view",
      "type": "function"
    },
    {
      "inputs": [],
      "name": "getAllListings",
      "outputs": [
        {
          "components": [
            {
              "internalType": "uint256",
              "name": "id",
              "type": "uint256"
            },
            {
              "internalType": "uint256",
              "name": "projectId",
              "type": "uint256"
            },
            {
              "internalType": "address",
              "name": "seller",
              "type": "address"
            },
            {
              "internalType": "uint256",
              "name": "amount",
              "type": "uint256"
            },
            {
              "internalType": "uint256",
              "name": "pricePerCredit",
              "type": "uint256"
            },
            {
              "internalType": "bool",
              "name": "active",
              "type": "bool"
            },
            {
              "internalType": "uint256",
              "name": "createdAt",
              "type": "uint256"
            }
          ],
          "internalType": "struct CarbonCreditSystem.CreditListing[]",
          "name": "",
          "type": "tuple[]"
        }
      ],
      "stateMutability": "view",
      "type": "function"
    },
    {
      "inputs": [],
      "name": "getAllProjects",
      "outputs": [
        {
          "components": [
            {
              "internalType": "uint256",
              "name": "id",
              "type": "uint256"
            },
            {
              "internalType": "address",
              "name": "provider",
              "type": "address"
            },
            {
              "internalType": "string",
              "name": "name",
              "type": "string"
            },
            {
              "internalType": "string",
              "name": "description",
              "type": "string"
            },
            {
              "internalType": "string",
              "name": "projectType",
              "type": "string"
            },
            {
              "internalType": "uint256",
              "name": "totalCredits",
              "type": "uint256"
            },
            {
              "internalType": "uint256",
              "name": "availableCredits",
              "type": "uint256"
            },
            {
              "internalType": "uint256",
              "name": "pricePerCredit",
              "type": "uint256"
            },
            {
              "internalType": "enum CarbonCreditSystem.ProjectStatus",
              "name": "status",
              "type": "uint8"
            },
            {
              "internalType": "address",
              "name": "verifier",
              "type": "address"
            },
            {
              "internalType": "uint256",
              "name": "createdAt",
              "type": "uint256"
            },
            {
              "internalType": "string",
              "name": "documentHash",
              "type": "string"
            },
            {
              "internalType": "string",
              "name": "reviewNotes",
              "type": "string"
            }
          ],
          "internalType": "struct CarbonCreditSystem.CarbonProject[]",
          "name": "",
          "type": "tuple[]"
        }
      ],
      "stateMutability": "view",
      "type": "function"
    },
    {
      "inputs": [],
      "name": "getPlatformStats",
      "outputs": [
        {
          "internalType": "uint256",
          "name": "totalEmissions",
          "type": "uint256"
        },
        {
          "internalType": "uint256",
          "name": "totalProjects",
          "type": "uint256"
        },
        {
          "internalType": "uint256",
          "name": "totalTransactions",
          "type": "uint256"
        },
        {
          "internalType": "uint256",
          "name": "totalCreditsIssued",
          "type": "uint256"
        }
      ],
      "stateMutability": "view",
      "type": "function"
    },
    {
      "inputs": [
        {
          "internalType": "bytes32",
          "name": "role",
          "type": "bytes32"
        }
      ],
      "name": "getRoleAdmin",
      "outputs": [
        {
          "internalType": "bytes32",
          "name": "",
          "type": "bytes32"
        }
      ],
      "stateMutability": "view",
      "type": "function"
    },
    {
      "inputs": [
        {
          "internalType": "address",
          "name": "user",
          "type": "address"
        },
        {
          "internalType": "uint256",
          "name": "projectId",
          "type": "uint256"
        }
      ],
      "name": "getUserCredits",
      "outputs": [
        {
          "internalType": "uint256",
          "name": "",
          "type": "uint256"
        }
      ],
      "stateMutability": "view",
      "type": "function"
    },
    {
      "inputs": [
        {
          "internalType": "address",
          "name": "user",
          "type": "address"
        }
      ],
      "name": "getUserEmissions",
      "outputs": [
        {
          "components": [
            {
              "internalType": "uint256",
              "name": "id",
              "type": "uint256"
            },
            {
              "internalType": "address",
              "name": "user",
              "type": "address"
            },
            {
              "internalType": "uint256",
              "name": "amount",
              "type": "uint256"
            },
            {
              "internalType": "string",
              "name": "activity",
              "type": "string"
            },
            {
              "internalType": "uint256",
              "name": "timestamp",
              "type": "uint256"
            },
            {
              "internalType": "bool",
              "name": "verified",
              "type": "bool"
            },
            {
              "internalType": "address",
              "name": "verifier",
              "type": "address"
            }
          ],
          "internalType": "struct CarbonCreditSystem.EmissionRecord[]",
          "name": "",
          "type": "tuple[]"
        }
      ],
      "stateMutability": "view",
      "type": "function"
    },
    {
      "inputs": [
        {
          "internalType": "address",
          "name": "user",
          "type": "address"
        }
      ],
      "name": "getUserTotalCredits",
      "outputs": [
        {
          "internalType": "uint256",
          "name": "",
          "type": "uint256"
        }
      ],
      "stateMutability": "view",
      "type": "function"
    },
    {
      "inputs": [
        {
          "internalType": "bytes32",
          "name": "role",
          "type": "bytes32"
        },
        {
          "internalType": "address",
          "name": "account",
          "type": "address"
        }
      ],
      "name": "grantRole",
      "outputs": [],
      "stateMutability": "nonpayable",
      "type": "function"
    },
    {
      "inputs": [
        {
          "internalType": "bytes32",
          "name": "role",
          "type": "bytes32"
        },
        {
          "internalType": "address",
          "name": "account",
          "type": "address"
        }
      ],
      "name": "hasRole",
      "outputs": [
        {
          "internalType": "bool",
          "name": "",
          "type": "bool"
        }
      ],
      "stateMutability": "view",
      "type": "function"
    },
    {
      "inputs": [
        {
          "internalType": "uint256",
          "name": "projectId",
          "type": "uint256"
        },
        {
          "internalType": "uint256",
          "name": "amount",
          "type": "uint256"
        },
        {
          "internalType": "string",
          "name": "tokenURI",
          "type": "string"
        }
      ],
      "name": "issueCredits",
      "outputs": [],
      "stateMutability": "nonpayable",
      "type": "function"
    },
    {
      "inputs": [
        {
          "internalType": "uint256",
          "name": "projectId",
          "type": "uint256"
        },
        {
          "internalType": "uint256",
          "name": "amount",
          "type": "uint256"
        },
        {
          "internalType": "uint256",
          "name": "pricePerCredit",
          "type": "uint256"
        }
      ],
      "name": "listCredits",
      "outputs": [],
      "stateMutability": "nonpayable",
      "type": "function"
    },
    {
      "inputs": [
        {
          "internalType": "uint256",
          "name": "",
          "type": "uint256"
        }
      ],
      "name": "listings",
      "outputs": [
        {
          "internalType": "uint256",
          "name": "id",
          "type": "uint256"
        },
        {
          "internalType": "uint256",
          "name": "projectId",
          "type": "uint256"
        },
        {
          "internalType": "address",
          "name": "seller",
          "type": "address"
        },
        {
          "internalType": "uint256",
          "name": "amount",
          "type": "uint256"
        },
        {
          "internalType": "uint256",
          "name": "pricePerCredit",
          "type": "uint256"
        },
        {
          "internalType": "bool",
          "name": "active",
          "type": "bool"
        },
        {
          "internalType": "uint256",
          "name": "createdAt",
          "type": "uint256"
        }
      ],
      "stateMutability": "view",
      "type": "function"
    },
    {
      "inputs": [
        {
          "internalType": "uint256",
          "name": "",
          "type": "uint256"
        }
      ],
      "name": "projects",
      "outputs": [
        {
          "internalType": "uint256",
          "name": "id",
          "type": "uint256"
        },
        {
          "internalType": "address",
          "name": "provider",
          "type": "address"
        },
        {
          "internalType": "string",
          "name": "name",
          "type": "string"
        },
        {
          "internalType": "string",
          "name": "description",
          "type": "string"
        },
        {
          "internalType": "string",
          "name": "projectType",
          "type": "string"
        },
        {
          "internalType": "uint256",
          "name": "totalCredits",
          "type": "uint256"
        },
        {
          "internalType": "uint256",
          "name": "availableCredits",
          "type": "uint256"
        },
        {
          "internalType": "uint256",
          "name": "pricePerCredit",
          "type": "uint256"
        },
        {
          "internalType": "enum CarbonCreditSystem.ProjectStatus",
          "name": "status",
          "type": "uint8"
        },
        {
          "internalType": "address",
          "name": "verifier",
          "type": "address"
        },
        {
          "internalType": "uint256",
          "name": "createdAt",
          "type": "uint256"
        },
        {
          "internalType": "string",
          "name": "documentHash",
          "type": "string"
        },
        {
          "internalType": "string",
          "name": "reviewNotes",
          "type": "string"
        }
      ],
      "stateMutability": "view",
      "type": "function"
    },
    {
      "inputs": [
        {
          "internalType": "uint256",
          "name": "amount",
          "type": "uint256"
        },
        {
          "internalType": "string",
          "name": "activity",
          "type": "string"
        }
      ],
      "name": "recordEmission",
      "outputs": [],
      "stateMutability": "nonpayable",
      "type": "function"
    },
    {
      "inputs": [
        {
          "internalType": "uint256",
          "name": "projectId",
          "type": "uint256"
        },
        {
          "internalType": "string",
          "name": "reason",
          "type": "string"
        }
      ],
      "name": "rejectProject",
      "outputs": [],
      "stateMutability": "nonpayable",
      "type": "function"
    },
    {
      "inputs": [
        {
          "internalType": "address",
          "name": "account",
          "type": "address"
        }
      ],
      "name": "removeProvider",
      "outputs": [],
      "stateMutability": "nonpayable",
      "type": "function"
    },
    {
      "inputs": [
        {
          "internalType": "address",
          "name": "account",
          "type": "address"
        }
      ],
      "name": "removeVerifier",
      "outputs": [],
      "stateMutability": "nonpayable",
      "type": "function"
    },
    {
      "inputs": [
        {
          "internalType": "bytes32",
          "name": "role",
          "type": "bytes32"
        },
        {
          "internalType": "address",
          "name": "callerConfirmation",
          "type": "address"
        }
      ],
      "name": "renounceRole",
      "outputs": [],
      "stateMutability": "nonpayable",
      "type": "function"
    },
    {
      "inputs": [
        {
          "internalType": "bytes32",
          "name": "role",
          "type": "bytes32"
        },
        {
          "internalType": "address",
          "name": "account",
          "type": "address"
        }
      ],
      "name": "revokeRole",
      "outputs": [],
      "stateMutability": "nonpayable",
      "type": "function"
    },
    {
      "inputs": [
        {
          "internalType": "bytes4",
          "name": "interfaceId",
          "type": "bytes4"
        }
      ],
      "name": "supportsInterface",
      "outputs": [
        {
          "internalType": "bool",
          "name": "",
          "type": "bool"
        }
      ],
      "stateMutability": "view",
      "type": "function"
    },
    {
      "inputs": [
        {
          "internalType": "uint256",
          "name": "",
          "type": "uint256"
        }
      ],
      "name": "transactions",
      "outputs": [
        {
          "internalType": "uint256",
          "name": "id",
          "type": "uint256"
        },
        {
          "internalType": "address",
          "name": "buyer",
          "type": "address"
        },
        {
          "internalType": "address",
          "name": "seller",
          "type": "address"
        },
        {
          "internalType": "uint256",
          "name": "projectId",
          "type": "uint256"
        },
        {
          "internalType": "uint256",
          "name": "amount",
          "type": "uint256"
        },
        {
          "internalType": "uint256",
          "name": "totalPrice",
          "type": "uint256"
        },
        {
          "internalType": "uint256",
          "name": "timestamp",
          "type": "uint256"
        }
      ],
      "stateMutability": "view",
      "type": "function"
    },
    {
      "inputs": [
        {
          "internalType": "address",
          "name": "",
          "type": "address"
        },
        {
          "internalType": "uint256",
          "name": "",
          "type": "uint256"
        }
      ],
      "name": "userCredits",
      "outputs": [
        {
          "internalType": "uint256",
          "name": "",
          "type": "uint256"
        }
      ],
      "stateMutability": "view",
      "type": "function"
    },
    {
      "inputs": [
        {
          "internalType": "address",
          "name": "",
          "type": "address"
        },
        {
          "internalType": "uint256",
          "name": "",
          "type": "uint256"
        }
      ],
      "name": "userEmissions",
      "outputs": [
        {
          "internalType": "uint256",
          "name": "",
          "type": "uint256"
        }
      ],
      "stateMutability": "view",
      "type": "function"
    },
    {
      "inputs": [
        {
          "internalType": "uint256",
          "name": "emissionId",
          "type": "uint256"
        }
      ],
      "name": "verifyEmission",
      "outputs": [],
      "stateMutability": "nonpayable",
      "type": "function"
    },
    {
      "inputs": [
        {
          "internalType": "uint256",
          "name": "projectId",
          "type": "uint256"
        }
      ],
      "name": "verifyProject",
      "outputs": [],
      "stateMutability": "nonpayable",
      "type": "function"
    }
  ],
  "bytecode": "0x60a060405234801561001057600080fd5b50604051613b40380380613b4083398101604081905261002f916101ae565b600180556001600160a01b03811661008d5760405162461bcd60e51b815260206004820152601c60248201527f496e76616c6964204e465420636f6e7472616374206164647265737300000000604482015260640160405180910390fd5b6001600160a01b0381166080526100a5600033610102565b506100d07f0ce23c3e399818cfee81a7ab0880f714e53d7672b08df0fa62f2843416e1ea0933610102565b506100fb7f18d9ff454de989bd126b06bd404b47ede75f9e65543e94e8d212f89d7dcbb87c33610102565b50506101de565b6000828152602081815260408083206001600160a01b038516845290915281205460ff166101a4576000838152602081815260408083206001600160a01b03861684529091529020805460ff1916600117905561015c3390565b6001600160a01b0316826001600160a01b0316847f2f8788117e7eff1d82e926ec794901d17c78024a50270940304540a733656f0d60405160405180910390a45060016101a8565b5060005b92915050565b6000602082840312156101c057600080fd5b81516001600160a01b03811681146101d757600080fd5b9392505050565b608051613940610200600039600081816102460152610f4e01526139406000f3fe60806040526004361061022f5760003560e01c80638b9783cd1161012e578063c121cff0116100ab578063e7705db61161006f578063e7705db61461084c578063eab03ca21461086e578063ebc349291461088e578063ed1ca91a146108ae578063fab56d20146108ce57600080fd5b8063c121cff0146106ee578063ca2dfd0a14610731578063cb6da67014610751578063d547741f14610784578063de74e57b146107a457600080fd5b8063a1c809bc116100f2578063a1c809bc14610657578063a217fddf14610677578063ae73ccec1461068c578063b8ff383d146106ae578063c0d32bde146106ce57600080fd5b80638b9783cd146105325780639000b3d61461055257806391d1485414610572578063953eb28f146105925780639ace38c2146105b257600080fd5b80632954eda5116101bc57806346e2577a1161018057806346e2577a1461049d578063479c8457146104bd5780634ba67bab146104d057806380d03829146104f05780638a355a571461051257600080fd5b80632954eda5146103fd5780632a4f6f961461041d5780632f2ff15d1461043d578063305a67a81461045d57806336568abe1461047d57600080fd5b806310e34f6f1161020357806310e34f6f14610310578063136d88831461033057806317a483a314610365578063248a9ca3146103ab57806324c20a34146103db57600080fd5b80623f2d021461023457806301ffc9a714610285578063086a8a87146102b5578063107046bd146102d7575b600080fd5b34801561024057600080fd5b506102687f000000000000000000000000000000000000000000000000000000000000000081565b6040516001600160a01b0390911681526020015b60405180910390f35b34801561029157600080fd5b506102a56102a0366004612df4565b6108fb565b604051901515815260200161027c565b3480156102c157600080fd5b506102d56102d0366004612eca565b610932565b005b3480156102e357600080fd5b506102f76102f2366004612f11565b610a89565b60405161027c9d9c9b9a99989796959493929190612fa8565b34801561031c57600080fd5b506102d561032b36600461306e565b610db0565b34801561033c57600080fd5b5061034561106e565b60408051948552602085019390935291830152606082015260800161027c565b34801561037157600080fd5b5061039d6103803660046130da565b600960209081526000928352604080842090915290825290205481565b60405190815260200161027c565b3480156103b757600080fd5b5061039d6103c6366004612f11565b60009081526020819052604090206001015490565b3480156103e757600080fd5b5061039d6000805160206138cb83398151915281565b34801561040957600080fd5b506102d5610418366004612eca565b611127565b34801561042957600080fd5b5061039d610438366004612f11565b611311565b34801561044957600080fd5b506102d5610458366004613104565b611332565b34801561046957600080fd5b506102d5610478366004612f11565b61135d565b34801561048957600080fd5b506102d5610498366004613104565b611474565b3480156104a957600080fd5b506102d56104b8366004613130565b6114ac565b6102d56104cb36600461314b565b6114d3565b3480156104dc57600080fd5b5061039d6104eb366004612f11565b611886565b3480156104fc57600080fd5b50610505611896565b60405161027c919061316d565b34801561051e57600080fd5b506102d561052d366004613130565b611cd6565b34801561053e57600080fd5b5061039d61054d366004613130565b611cf9565b34801561055e57600080fd5b506102d561056d366004613130565b611d6d565b34801561057e57600080fd5b506102a561058d366004613104565b611d90565b34801561059e57600080fd5b5061039d6105ad366004612f11565b611db9565b3480156105be57600080fd5b506106166105cd366004612f11565b600a60205260009081526040902080546001820154600283015460038401546004850154600586015460069096015494956001600160a01b039485169594909316939192909187565b604080519788526001600160a01b03968716602089015294909516938601939093526060850191909152608084015260a083015260c082015260e00161027c565b34801561066357600080fd5b506102d5610672366004612f11565b611dc9565b34801561068357600080fd5b5061039d600081565b34801561069857600080fd5b506106a1611ef4565b60405161027c91906132ce565b3480156106ba57600080fd5b5061039d6106c9366004612f11565b61210c565b3480156106da57600080fd5b5061039d6106e93660046130da565b61211c565b3480156106fa57600080fd5b5061039d6107093660046130da565b6001600160a01b03919091166000908152600960209081526040808320938352929052205490565b34801561073d57600080fd5b506102d561074c366004613130565b61214d565b34801561075d57600080fd5b5061077161076c366004612f11565b612170565b60405161027c979695949392919061335f565b34801561079057600080fd5b506102d561079f366004613104565b61224c565b3480156107b057600080fd5b506108096107bf366004612f11565b6008602052600090815260409020805460018201546002830154600384015460048501546005860154600690960154949593946001600160a01b03909316939192909160ff169087565b6040805197885260208801969096526001600160a01b03909416948601949094526060850191909152608084015290151560a083015260c082015260e00161027c565b34801561085857600080fd5b5061039d6000805160206138eb83398151915281565b34801561087a57600080fd5b506102d56108893660046133b4565b612271565b34801561089a57600080fd5b506102d56108a936600461347e565b612551565b3480156108ba57600080fd5b506102d56108c9366004612f11565b6127ee565b3480156108da57600080fd5b506108ee6108e9366004613130565b61299c565b60405161027c91906134aa565b60006001600160e01b03198216637965db0b60e01b148061092c57506301ffc9a760e01b6001600160e01b03198316145b92915050565b6000805160206138eb83398151915261094a81612bfc565b60008381526007602052604081205490036109a05760405162461bcd60e51b8152602060048201526011602482015270141c9bda9958dd081b9bdd08199bdd5b99607a1b60448201526064015b60405180910390fd5b60008381526007602052604081206008015460ff1660028111156109c6576109c6612f70565b14610a095760405162461bcd60e51b815260206004820152601360248201527250726f6a656374206e6f742070656e64696e6760681b6044820152606401610997565b600083815260076020526040902060088101805461010033026001600160a81b0319909116176002179055600b01610a4183826135e1565b50336001600160a01b0316837f5e5a832cb1c5df272bcf782f38cea3622f9769d9af7d6001c06059a7e609fcc984604051610a7c91906136a0565b60405180910390a3505050565b60076020526000908152604090208054600182015460028301805492936001600160a01b0390921692610abb9061355f565b80601f0160208091040260200160405190810160405280929190818152602001828054610ae79061355f565b8015610b345780601f10610b0957610100808354040283529160200191610b34565b820191906000526020600020905b815481529060010190602001808311610b1757829003601f168201915b505050505090806003018054610b499061355f565b80601f0160208091040260200160405190810160405280929190818152602001828054610b759061355f565b8015610bc25780601f10610b9757610100808354040283529160200191610bc2565b820191906000526020600020905b815481529060010190602001808311610ba557829003601f168201915b505050505090806004018054610bd79061355f565b80601f0160208091040260200160405190810160405280929190818152602001828054610c039061355f565b8015610c505780601f10610c2557610100808354040283529160200191610c50565b820191906000526020600020905b815481529060010190602001808311610c3357829003601f168201915b5050505060058301546006840154600785015460088601546009870154600a8801805497989597949650929460ff8316946101009093046001600160a01b0316939192909190610c9f9061355f565b80601f0160208091040260200160405190810160405280929190818152602001828054610ccb9061355f565b8015610d185780601f10610ced57610100808354040283529160200191610d18565b820191906000526020600020905b815481529060010190602001808311610cfb57829003601f168201915b50505050509080600b018054610d2d9061355f565b80601f0160208091040260200160405190810160405280929190818152602001828054610d599061355f565b8015610da65780601f10610d7b57610100808354040283529160200191610da6565b820191906000526020600020905b815481529060010190602001808311610d8957829003601f168201915b505050505090508d565b6000805160206138eb833981519152610dc881612bfc565b6000848152600760205260408120549003610e1e5760405162461bcd60e51b8152602060048201526016602482015275141c9bda9958dd08191bd95cc81b9bdd08195e1a5cdd60521b6044820152606401610997565b600160008581526007602052604090206008015460ff166002811115610e4657610e46612f70565b14610e8a5760405162461bcd60e51b8152602060048201526014602482015273141c9bda9958dd081b9bdd08185c1c1c9bdd995960621b6044820152606401610997565b60008311610eaa5760405162461bcd60e51b8152600401610997906136b3565b600084815260076020526040902060060154831115610f0b5760405162461bcd60e51b815260206004820152601960248201527f4578636565647320617661696c61626c652063726564697473000000000000006044820152606401610997565b60008481526007602052604081206009810154909190610f2f906309660180613700565b6001830154604051638d60f18f60e01b81529192506001600160a01b037f0000000000000000000000000000000000000000000000000000000000000000811692638d60f18f92610f979216908a908a9042906004808b019160038c01918b918f9101613796565b600060405180830381600087803b158015610fb157600080fd5b505af1158015610fc5573d6000803e3d6000fd5b5050505060018201546001600160a01b0316600090815260096020908152604080832089845290915281208054879290611000908490613700565b925050819055508482600601600082825461101b919061382e565b909155505060018201546040518681526001600160a01b039091169087907f0f5eeceedc2aa2eab0f45a8335f978a22b5cb19f4389d50dfdf5f954359f05469060200160405180910390a3505050505050565b600b54600c54600e546000805b600c5481101561112057600160076000600c848154811061109e5761109e613841565b6000918252602080832090910154835282019290925260400190206008015460ff1660028111156110d1576110d1612f70565b036111185760076000600c83815481106110ed576110ed613841565b9060005260206000200154815260200190815260200160002060050154826111159190613700565b91505b60010161107b565b5090919293565b600082116111475760405162461bcd60e51b8152600401610997906136b3565b60008151116111985760405162461bcd60e51b815260206004820152601860248201527f41637469766974792063616e6e6f7420626520656d70747900000000000000006044820152606401610997565b600280549060006111a883613857565b9091555050600280546040805160e08101825282815233602080830191825282840188815260608401888152426080860152600060a0860181905260c086018190528781526005909352949091208351815591516001830180546001600160a01b0319166001600160a01b039092169190911790555194810194909455905191929091600382019061123a90826135e1565b506080820151600482015560a08201516005909101805460c0909301516001600160a01b031661010002610100600160a81b0319921515929092166001600160a81b031990931692909217179055336000818152600660209081526040808320805460018181018355918552928420909201859055600b805492830181559092527f0175b7a638427703f0dbe7bb9bbf987a2551717b34e79f33b5b1008d1fa01db9018390555182907e64e2731091f5f430bde3311651d1a4ea1932b868b1a6cfff719e56fd6008ef90610a7c9087908790613870565b600e818154811061132157600080fd5b600091825260209091200154905081565b60008281526020819052604090206001015461134d81612bfc565b6113578383612c09565b50505050565b600081815260086020526040902060028101546001600160a01b031633146113b85760405162461bcd60e51b815260206004820152600e60248201526d2737ba103a34329039b2b63632b960911b6044820152606401610997565b600581015460ff166114015760405162461bcd60e51b81526020600482015260126024820152714c697374696e67206e6f742061637469766560701b6044820152606401610997565b60058101805460ff1916905560038101543360009081526009602090815260408083206001860154845290915281208054909190611440908490613700565b909155505060405182907f411aee90354c51b1b04cd563fcab2617142a9d50da19232d888547c8a1b7fd8a90600090a25050565b6001600160a01b038116331461149d5760405163334bd91960e11b815260040160405180910390fd5b6114a78282612c9b565b505050565b60006114b781612bfc565b6114cf6000805160206138cb83398151915283611332565b5050565b6114db612d06565b6000828152600860205260409020600581015460ff166115325760405162461bcd60e51b81526020600482015260126024820152714c697374696e67206e6f742061637469766560701b6044820152606401610997565b600082118015611546575080600301548211155b6115835760405162461bcd60e51b815260206004820152600e60248201526d125b9d985b1a5908185b5bdd5b9d60921b6044820152606401610997565b60008160040154836115959190613891565b9050803410156115de5760405162461bcd60e51b8152602060048201526014602482015273125b9cdd59999a58da595b9d081c185e5b595b9d60621b6044820152606401610997565b828260030160008282546115f2919061382e565b909155505060038201546000036116105760058201805460ff191690555b336000908152600960209081526040808320600186015484529091528120805485929061163e908490613700565b909155505060028201546040516001600160a01b039091169082156108fc029083906000818181858888f1935050505015801561167f573d6000803e3d6000fd5b50803411156116c057336108fc611696833461382e565b6040518115909202916000818181858888f193505050501580156116be573d6000803e3d6000fd5b505b600e546000906116d1906001613700565b90506040518060e00160405280828152602001336001600160a01b031681526020018460020160009054906101000a90046001600160a01b03166001600160a01b031681526020018460010154815260200185815260200183815260200142815250600a60008381526020019081526020016000206000820151816000015560208201518160010160006101000a8154816001600160a01b0302191690836001600160a01b0316021790555060408201518160020160006101000a8154816001600160a01b0302191690836001600160a01b03160217905550606082015181600301556080820151816004015560a0820151816005015560c08201518160060155905050600e8190806001815401808255809150506001900390600052602060002001600090919091909150558260020160009054906101000a90046001600160a01b03166001600160a01b0316336001600160a01b0316827f3b601e39167759d245ec7057d319bb00a801e154a118eee08f7c77aa44f24e6a86600101548887604051611872939291909283526020830191909152604082015260600190565b60405180910390a45050506114cf60018055565b600b818154811061132157600080fd5b600c5460609060009067ffffffffffffffff8111156118b7576118b7612e25565b6040519080825280602002602001820160405280156118f057816020015b6118dd612d69565b8152602001906001900390816118d55790505b50905060005b600c54811015611cd05760076000600c838154811061191757611917613841565b60009182526020808320909101548352828101939093526040918201902081516101a0810183528154815260018201546001600160a01b031693810193909352600281018054919284019161196b9061355f565b80601f01602080910402602001604051908101604052809291908181526020018280546119979061355f565b80156119e45780601f106119b9576101008083540402835291602001916119e4565b820191906000526020600020905b8154815290600101906020018083116119c757829003601f168201915b505050505081526020016003820180546119fd9061355f565b80601f0160208091040260200160405190810160405280929190818152602001828054611a299061355f565b8015611a765780601f10611a4b57610100808354040283529160200191611a76565b820191906000526020600020905b815481529060010190602001808311611a5957829003601f168201915b50505050508152602001600482018054611a8f9061355f565b80601f0160208091040260200160405190810160405280929190818152602001828054611abb9061355f565b8015611b085780601f10611add57610100808354040283529160200191611b08565b820191906000526020600020905b815481529060010190602001808311611aeb57829003601f168201915b5050509183525050600582015460208201526006820154604082015260078201546060820152600882015460809091019060ff166002811115611b4d57611b4d612f70565b6002811115611b5e57611b5e612f70565b8152600882015461010090046001600160a01b0316602082015260098201546040820152600a82018054606090920191611b979061355f565b80601f0160208091040260200160405190810160405280929190818152602001828054611bc39061355f565b8015611c105780601f10611be557610100808354040283529160200191611c10565b820191906000526020600020905b815481529060010190602001808311611bf357829003601f168201915b50505050508152602001600b82018054611c299061355f565b80601f0160208091040260200160405190810160405280929190818152602001828054611c559061355f565b8015611ca25780601f10611c7757610100808354040283529160200191611ca2565b820191906000526020600020905b815481529060010190602001808311611c8557829003601f168201915b505050505081525050828281518110611cbd57611cbd613841565b60209081029190910101526001016118f6565b50919050565b6000611ce181612bfc565b6114cf6000805160206138cb8339815191528361224c565b600080805b600c54811015611d66576001600160a01b0384166000908152600960205260408120600c805491929184908110611d3757611d37613841565b906000526020600020015481526020019081526020016000205482611d5c9190613700565b9150600101611cfe565b5092915050565b6000611d7881612bfc565b6114cf6000805160206138eb83398151915283611332565b6000918252602082815260408084206001600160a01b0393909316845291905290205460ff1690565b600c818154811061132157600080fd5b6000805160206138eb833981519152611de181612bfc565b6000828152600560205260408120549003611e3e5760405162461bcd60e51b815260206004820152601960248201527f456d697373696f6e207265636f7264206e6f7420666f756e64000000000000006044820152606401610997565b6000828152600560208190526040909120015460ff1615611e945760405162461bcd60e51b815260206004820152601060248201526f105b1c9958591e481d995c9a599a595960821b6044820152606401610997565b600082815260056020819052604080832090910180543361010081026001600160a81b0319909216919091176001179091559051909184917f413827bb26c666a3c5a6e2fe2e3e31f19dafd112487ab65a1f4d84e038c275ce9190a35050565b60606000805b600d54811015611f585760086000600d8381548110611f1b57611f1b613841565b6000918252602080832090910154835282019290925260400190206005015460ff1615611f505781611f4c81613857565b9250505b600101611efa565b5060008167ffffffffffffffff811115611f7457611f74612e25565b604051908082528060200260200182016040528015611ff057816020015b611fdd6040518060e00160405280600081526020016000815260200160006001600160a01b031681526020016000815260200160008152602001600015158152602001600081525090565b815260200190600190039081611f925790505b5090506000805b600d548110156121035760086000600d838154811061201857612018613841565b6000918252602080832090910154835282019290925260400190206005015460ff16156120fb5760086000600d838154811061205657612056613841565b600091825260208083209091015483528281019390935260409182019020815160e0810183528154815260018201549381019390935260028101546001600160a01b0316918301919091526003810154606083015260048101546080830152600581015460ff16151560a08301526006015460c082015283518490849081106120e1576120e1613841565b602002602001018190525081806120f790613857565b9250505b600101611ff7565b50909392505050565b600d818154811061132157600080fd5b6006602052816000526040600020818154811061213857600080fd5b90600052602060002001600091509150505481565b600061215881612bfc565b6114cf6000805160206138eb8339815191528361224c565b600560205260009081526040902080546001820154600283015460038401805493946001600160a01b03909316939192916121aa9061355f565b80601f01602080910402602001604051908101604052809291908181526020018280546121d69061355f565b80156122235780601f106121f857610100808354040283529160200191612223565b820191906000526020600020905b81548152906001019060200180831161220657829003601f168201915b50505050600483015460059093015491929160ff8116915061010090046001600160a01b031687565b60008281526020819052604090206001015461226781612bfc565b6113578383612c9b565b6000805160206138cb83398151915261228981612bfc565b60008651116122d15760405162461bcd60e51b81526020600482015260146024820152734e616d652063616e6e6f7420626520656d70747960601b6044820152606401610997565b6000831161232d5760405162461bcd60e51b8152602060048201526024808201527f546f74616c2063726564697473206d75737420626520677265617465722074686044820152630616e20360e41b6064820152608401610997565b6003805490600061233d83613857565b9091555050600354604080516101a0810182528281523360208083019182528284018b8152606084018b9052608084018a905260a08401899052600060c0850181905260e08501819052610100850181905261012085018190524261014086015261016085018990528551808401875281815261018086015286815260079092529390208251815590516001820180546001600160a01b0319166001600160a01b03909216919091179055915190919060028201906123fc90826135e1565b506060820151600382019061241190826135e1565b506080820151600482019061242690826135e1565b5060a0820151600582015560c0820151600682015560e0820151600782015561010082015160088201805460ff1916600183600281111561246957612469612f70565b02179055506101208201516008820180546001600160a01b0390921661010002610100600160a81b03199092169190911790556101408201516009820155610160820151600a8201906124bc90826135e1565b50610180820151600b8201906124d290826135e1565b5050600c80546001810182556000919091527fdf6966c971051c3d54ec59162606531493a51404a002842f56009d7e5cf4a8c70182905550604051339082907f51d08cb6cfa640a387210fb69df925dfb70169ae7373f8ecd40b977b0c800d9a90612540908b9089906138a8565b60405180910390a350505050505050565b600160008481526007602052604090206008015460ff16600281111561257957612579612f70565b146125bd5760405162461bcd60e51b8152602060048201526014602482015273141c9bda9958dd081b9bdd08185c1c1c9bdd995960621b6044820152606401610997565b33600090815260096020908152604080832086845290915290205482111561261e5760405162461bcd60e51b8152602060048201526014602482015273496e73756666696369656e74206372656469747360601b6044820152606401610997565b6000821161263e5760405162461bcd60e51b8152600401610997906136b3565b6000811161268e5760405162461bcd60e51b815260206004820152601c60248201527f5072696365206d7573742062652067726561746572207468616e2030000000006044820152606401610997565b6004805490600061269e83613857565b9091555050600480546040805160e081018252828152602080820188815233838501818152606085018a8152608086018a8152600160a088018181524260c08a0190815260008c815260088a528b81209a518b559751928a019290925593516002890180546001600160a01b0319166001600160a01b039092169190911790559151600388015551988601989098555160058501805460ff1916911515919091179055955160069093019290925593815260098452818120878252909352822080549192859261276f90849061382e565b9091555050600d80546001810182556000919091527fd7b6990105719101dabeb77144f2a3385c8033acd3af97e9423a695e81ad1eb50181905560408051848152602081018490523391869184917fb3125be755c9d03f04e13494efa66f8729c5f85b2852c2a692560260b5839aa1910160405180910390a450505050565b6000805160206138eb83398151915261280681612bfc565b60008281526007602052604081205490036128575760405162461bcd60e51b8152602060048201526011602482015270141c9bda9958dd081b9bdd08199bdd5b99607a1b6044820152606401610997565b60008281526007602052604081206008015460ff16600281111561287d5761287d612f70565b146128c05760405162461bcd60e51b815260206004820152601360248201527250726f6a656374206e6f742070656e64696e6760681b6044820152606401610997565b600082815260076020908152604080832060088101805460016001600160a81b03199091163361010081029190911782179092556005830154600684018190559201546001600160a01b03168552600984528285208786529093528184205551909184917fa8993bbe79af1071dc039c1144feccfba01680aa0fdd10a4e92f1a12533e895c9190a3817f83a3ded54d9fdffb8d19d3c1f853473fdb386f57007e2b9e782ee207c34cbf04600760008581526020019081526020016000206005015460405161299091815260200190565b60405180910390a25050565b6001600160a01b03811660009081526006602090815260408083208054825181850281018501909352808352606094938301828280156129fb57602002820191906000526020600020905b8154815260200190600101908083116129e7575b505050505090506000815167ffffffffffffffff811115612a1e57612a1e612e25565b604051908082528060200260200182016040528015612a8457816020015b6040805160e081018252600080825260208083018290529282018190526060808301526080820181905260a0820181905260c08201528252600019909201910181612a3c5790505b50905060005b8251811015612bf45760056000848381518110612aa957612aa9613841565b602002602001015181526020019081526020016000206040518060e0016040529081600082015481526020016001820160009054906101000a90046001600160a01b03166001600160a01b03166001600160a01b0316815260200160028201548152602001600382018054612b1d9061355f565b80601f0160208091040260200160405190810160405280929190818152602001828054612b499061355f565b8015612b965780601f10612b6b57610100808354040283529160200191612b96565b820191906000526020600020905b815481529060010190602001808311612b7957829003601f168201915b50505091835250506004820154602082015260059091015460ff81161515604083015261010090046001600160a01b03166060909101528251839083908110612be157612be1613841565b6020908102919091010152600101612a8a565b509392505050565b612c068133612d30565b50565b6000612c158383611d90565b612c93576000838152602081815260408083206001600160a01b03861684529091529020805460ff19166001179055612c4b3390565b6001600160a01b0316826001600160a01b0316847f2f8788117e7eff1d82e926ec794901d17c78024a50270940304540a733656f0d60405160405180910390a450600161092c565b50600061092c565b6000612ca78383611d90565b15612c93576000838152602081815260408083206001600160a01b0386168085529252808320805460ff1916905551339286917ff6391f5c32d9c69d2a47ea670b442974b53935d1edc7fd64eb21e047a839171b9190a450600161092c565b600260015403612d2957604051633ee5aeb560e01b815260040160405180910390fd5b6002600155565b612d3a8282611d90565b6114cf5760405163e2517d3f60e01b81526001600160a01b038216600482015260248101839052604401610997565b604051806101a001604052806000815260200160006001600160a01b0316815260200160608152602001606081526020016060815260200160008152602001600081526020016000815260200160006002811115612dc957612dc9612f70565b815260200160006001600160a01b031681526020016000815260200160608152602001606081525090565b600060208284031215612e0657600080fd5b81356001600160e01b031981168114612e1e57600080fd5b9392505050565b634e487b7160e01b600052604160045260246000fd5b600082601f830112612e4c57600080fd5b813567ffffffffffffffff811115612e6657612e66612e25565b604051601f8201601f19908116603f0116810167ffffffffffffffff81118282101715612e9557612e95612e25565b604052818152838201602001851015612ead57600080fd5b816020850160208301376000918101602001919091529392505050565b60008060408385031215612edd57600080fd5b82359150602083013567ffffffffffffffff811115612efb57600080fd5b612f0785828601612e3b565b9150509250929050565b600060208284031215612f2357600080fd5b5035919050565b6000815180845260005b81811015612f5057602081850181015186830182015201612f34565b506000602082860101526020601f19601f83011685010191505092915050565b634e487b7160e01b600052602160045260246000fd5b60038110612fa457634e487b7160e01b600052602160045260246000fd5b9052565b8d81526001600160a01b038d1660208201526101a060408201526000612fd26101a083018e612f2a565b8281036060840152612fe4818e612f2a565b90508281036080840152612ff8818d612f2a565b90508a60a08401528960c08401528860e084015261301a610100840189612f86565b6001600160a01b038716610120840152856101408401528281036101608401526130448186612f2a565b90508281036101808401526130598185612f2a565b9150509e9d5050505050505050505050505050565b60008060006060848603121561308357600080fd5b8335925060208401359150604084013567ffffffffffffffff8111156130a857600080fd5b6130b486828701612e3b565b9150509250925092565b80356001600160a01b03811681146130d557600080fd5b919050565b600080604083850312156130ed57600080fd5b6130f6836130be565b946020939093013593505050565b6000806040838503121561311757600080fd5b82359150613127602084016130be565b90509250929050565b60006020828403121561314257600080fd5b612e1e826130be565b6000806040838503121561315e57600080fd5b50508035926020909101359150565b6000602082016020835280845180835260408501915060408160051b86010192506020860160005b828110156132c257603f1987860301845281518051865260208101516131c660208801826001600160a01b03169052565b5060408101516101a060408801526131e26101a0880182612f2a565b9050606082015187820360608901526131fb8282612f2a565b915050608082015187820360808901526132158282612f2a565b91505060a082015160a088015260c082015160c088015260e082015160e088015261010082015161324a610100890182612f86565b506101208201516132676101208901826001600160a01b03169052565b5061014082015161014088015261016082015187820361016089015261328d8282612f2a565b91505061018082015191508681036101808801526132ab8183612f2a565b965050506020938401939190910190600101613195565b50929695505050505050565b602080825282518282018190526000918401906040840190835b81811015613354578351805184526020810151602085015260018060a01b036040820151166040850152606081015160608501526080810151608085015260a0810151151560a085015260c081015160c08501525060e0830192506020840193506001810190506132e8565b509095945050505050565b87815260018060a01b038716602082015285604082015260e06060820152600061338c60e0830187612f2a565b60808301959095525091151560a08301526001600160a01b031660c090910152949350505050565b600080600080600060a086880312156133cc57600080fd5b853567ffffffffffffffff8111156133e357600080fd5b6133ef88828901612e3b565b955050602086013567ffffffffffffffff81111561340c57600080fd5b61341888828901612e3b565b945050604086013567ffffffffffffffff81111561343557600080fd5b61344188828901612e3b565b93505060608601359150608086013567ffffffffffffffff81111561346557600080fd5b61347188828901612e3b565b9150509295509295909350565b60008060006060848603121561349357600080fd5b505081359360208301359350604090920135919050565b6000602082016020835280845180835260408501915060408160051b86010192506020860160005b828110156132c257603f1987860301845281518051865260018060a01b03602082015116602087015260408101516040870152606081015160e0606088015261351e60e0880182612f2a565b6080838101519089015260a08084015115159089015260c0928301516001600160a01b031692909701919091525060209384019391909101906001016134d2565b600181811c9082168061357357607f821691505b602082108103611cd057634e487b7160e01b600052602260045260246000fd5b601f8211156114a757806000526020600020601f840160051c810160208510156135ba5750805b601f840160051c820191505b818110156135da57600081556001016135c6565b5050505050565b815167ffffffffffffffff8111156135fb576135fb612e25565b61360f81613609845461355f565b84613593565b6020601f821160018114613643576000831561362b5750848201515b600019600385901b1c1916600184901b1784556135da565b600084815260208120601f198516915b828110156136735787850151825560209485019460019092019101613653565b50848210156136915786840151600019600387901b60f8161c191681555b50505050600190811b01905550565b602081526000612e1e6020830184612f2a565b6020808252601d908201527f416d6f756e74206d7573742062652067726561746572207468616e2030000000604082015260600190565b634e487b7160e01b600052601160045260246000fd5b8082018082111561092c5761092c6136ea565b600081546137208161355f565b80855260018216801561373a57600181146137565761378d565b60ff1983166020870152602082151560051b870101935061378d565b84600052602060002060005b838110156137845781546020828a010152600182019150602081019050613762565b87016020019450505b50505092915050565b60018060a01b03891681528760208201528660408201528560608201526101206080820152600d6101208201526c10d85c989bdb8813d9999cd95d609a1b61014082015261016060a082015260006137f2610160830187613713565b82810360c08401526138048187613713565b90508460e084015282810361010084015261381f8185612f2a565b9b9a5050505050505050505050565b8181038181111561092c5761092c6136ea565b634e487b7160e01b600052603260045260246000fd5b600060018201613869576138696136ea565b5060010190565b8281526040602082015260006138896040830184612f2a565b949350505050565b808202811582820484141761092c5761092c6136ea565b6040815260006138bb6040830185612f2a565b9050826020830152939250505056fe18d9ff454de989bd126b06bd404b47ede75f9e65543e94e8d212f89d7dcbb87c0ce23c3e399818cfee81a7ab0880f714e53d7672b08df0fa62f2843416e1ea09a26469706673582212208567a8165ed88075d0bc38903626f1023f1e7bcdb8ac30f83a60daf76698d15564736f6c634300081c0033",
  "linkReferences": {},
  "deployedLinkReferences": {}
}