{
  "_format": "hh-sol-artifact-1",
  "contractName": "CarbonCreditSystem",
  "sourceName": "contracts/CarbonCreditSystem.sol",
  "abi": [
    {
      "inputs": [
        {
          "internalType": "address",
          "name": "_carbonCreditNFT",
          "type": "address"
        }
      ],
      "stateMutability": "nonpayable",
      "type": "constructor"
    },
    {
      "inputs": [],
      "name": "AccessControlBadConfirmation",
      "type": "error"
    },
    {
      "inputs": [
        {
          "internalType": "address",
          "name": "account",
          "type": "address"
        },
        {
          "internalType": "bytes32",
          "name": "neededRole",
          "type": "bytes32"
        }
      ],
      "name": "AccessControlUnauthorizedAccount",
      "type": "error"
    },
    {
      "inputs": [],
      "name": "ReentrancyGuardReentrantCall",
      "type": "error"
    },
    {
      "anonymous": false,
      "inputs": [
        {
          "indexed": true,
          "internalType": "uint256",
          "name": "projectId",
          "type": "uint256"
        },
        {
          "indexed": true,
          "internalType": "address",
          "name": "provider",
          "type": "address"
        },
        {
          "indexed": false,
          "internalType": "uint256",
          "name": "amount",
          "type": "uint256"
        }
      ],
      "name": "CreditIssued",
      "type": "event"
    },
    {
      "anonymous": false,
      "inputs": [
        {
          "indexed": true,
          "internalType": "uint256",
          "name": "projectId",
          "type": "uint256"
        },
        {
          "indexed": false,
          "internalType": "uint256",
          "name": "amount",
          "type": "uint256"
        }
      ],
      "name": "CreditsGenerated",
      "type": "event"
    },
    {
      "anonymous": false,
      "inputs": [
        {
          "indexed": true,
          "internalType": "uint256",
          "name": "listingId",
          "type": "uint256"
        },
        {
          "indexed": true,
          "internalType": "uint256",
          "name": "projectId",
          "type": "uint256"
        },
        {
          "indexed": true,
          "internalType": "address",
          "name": "seller",
          "type": "address"
        },
        {
          "indexed": false,
          "internalType": "uint256",
          "name": "amount",
          "type": "uint256"
        },
        {
          "indexed": false,
          "internalType": "uint256",
          "name": "price",
          "type": "uint256"
        }
      ],
      "name": "CreditsListed",
      "type": "event"
    },
    {
      "anonymous": false,
      "inputs": [
        {
          "indexed": true,
          "internalType": "uint256",
          "name": "transactionId",
          "type": "uint256"
        },
        {
          "indexed": true,
          "internalType": "address",
          "name": "buyer",
          "type": "address"
        },
        {
          "indexed": true,
          "internalType": "address",
          "name": "seller",
          "type": "address"
        },
        {
          "indexed": false,
          "internalType": "uint256",
          "name": "projectId",
          "type": "uint256"
        },
        {
          "indexed": false,
          "internalType": "uint256",
          "name": "amount",
          "type": "uint256"
        },
        {
          "indexed": false,
          "internalType": "uint256",
          "name": "totalPrice",
          "type": "uint256"
        }
      ],
      "name": "CreditsPurchased",
      "type": "event"
    },
    {
      "anonymous": false,
      "inputs": [
        {
          "indexed": true,
          "internalType": "uint256",
          "name": "id",
          "type": "uint256"
        },
        {
          "indexed": true,
          "internalType": "address",
          "name": "user",
          "type": "address"
        },
        {
          "indexed": false,
          "internalType": "uint256",
          "name": "amount",
          "type": "uint256"
        },
        {
          "indexed": false,
          "internalType": "string",
          "name": "activity",
          "type": "string"
        }
      ],
      "name": "EmissionRecorded",
      "type": "event"
    },
    {
      "anonymous": false,
      "inputs": [
        {
          "indexed": true,
          "internalType": "uint256",
          "name": "id",
          "type": "uint256"
        },
        {
          "indexed": true,
          "internalType": "address",
          "name": "verifier",
          "type": "address"
        }
      ],
      "name": "EmissionVerified",
      "type": "event"
    },
    {
      "anonymous": false,
      "inputs": [
        {
          "indexed": true,
          "internalType": "uint256",
          "name": "listingId",
          "type": "uint256"
        }
      ],
      "name": "ListingCancelled",
      "type": "event"
    },
    {
      "anonymous": false,
      "inputs": [
        {
          "indexed": true,
          "internalType": "uint256",
          "name": "id",
          "type": "uint256"
        },
        {
          "indexed": true,
          "internalType": "address",
          "name": "provider",
          "type": "address"
        },
        {
          "indexed": false,
          "internalType": "string",
          "name": "name",
          "type": "string"
        },
        {
          "indexed": false,
          "internalType": "uint256",
          "name": "totalCredits",
          "type": "uint256"
        }
      ],
      "name": "ProjectCreated",
      "type": "event"
    },
    {
      "anonymous": false,
      "inputs": [
        {
          "indexed": true,
          "internalType": "uint256",
          "name": "id",
          "type": "uint256"
        },
        {
          "indexed": true,
          "internalType": "address",
          "name": "verifier",
          "type": "address"
        }
      ],
      "name": "ProjectVerified",
      "type": "event"
    },
    {
      "anonymous": false,
      "inputs": [
        {
          "indexed": true,
          "internalType": "bytes32",
          "name": "role",
          "type": "bytes32"
        },
        {
          "indexed": true,
          "internalType": "bytes32",
          "name": "previousAdminRole",
          "type": "bytes32"
        },
        {
          "indexed": true,
          "internalType": "bytes32",
          "name": "newAdminRole",
          "type": "bytes32"
        }
      ],
      "name": "RoleAdminChanged",
      "type": "event"
    },
    {
      "anonymous": false,
      "inputs": [
        {
          "indexed": true,
          "internalType": "bytes32",
          "name": "role",
          "type": "bytes32"
        },
        {
          "indexed": true,
          "internalType": "address",
          "name": "account",
          "type": "address"
        },
        {
          "indexed": true,
          "internalType": "address",
          "name": "sender",
          "type": "address"
        }
      ],
      "name": "RoleGranted",
      "type": "event"
    },
    {
      "anonymous": false,
      "inputs": [
        {
          "indexed": true,
          "internalType": "bytes32",
          "name": "role",
          "type": "bytes32"
        },
        {
          "indexed": true,
          "internalType": "address",
          "name": "account",
          "type": "address"
        },
        {
          "indexed": true,
          "internalType": "address",
          "name": "sender",
          "type": "address"
        }
      ],
      "name": "RoleRevoked",
      "type": "event"
    },
    {
      "inputs": [],
      "name": "DEFAULT_ADMIN_ROLE",
      "outputs": [
        {
          "internalType": "bytes32",
          "name": "",
          "type": "bytes32"
        }
      ],
      "stateMutability": "view",
      "type": "function"
    },
    {
      "inputs": [],
      "name": "PROVIDER_ROLE",
      "outputs": [
        {
          "internalType": "bytes32",
          "name": "",
          "type": "bytes32"
        }
      ],
      "stateMutability": "view",
      "type": "function"
    },
    {
      "inputs": [],
      "name": "VERIFIER_ROLE",
      "outputs": [
        {
          "internalType": "bytes32",
          "name": "",
          "type": "bytes32"
        }
      ],
      "stateMutability": "view",
      "type": "function"
    },
    {
      "inputs": [
        {
          "internalType": "address",
          "name": "account",
          "type": "address"
        }
      ],
      "name": "addProvider",
      "outputs": [],
      "stateMutability": "nonpayable",
      "type": "function"
    },
    {
      "inputs": [
        {
          "internalType": "address",
          "name": "account",
          "type": "address"
        }
      ],
      "name": "addVerifier",
      "outputs": [],
      "stateMutability": "nonpayable",
      "type": "function"
    },
    {
      "inputs": [
        {
          "internalType": "uint256",
          "name": "",
          "type": "uint256"
        }
      ],
      "name": "allEmissionIds",
      "outputs": [
        {
          "internalType": "uint256",
          "name": "",
          "type": "uint256"
        }
      ],
      "stateMutability": "view",
      "type": "function"
    },
    {
      "inputs": [
        {
          "internalType": "uint256",
          "name": "",
          "type": "uint256"
        }
      ],
      "name": "allListingIds",
      "outputs": [
        {
          "internalType": "uint256",
          "name": "",
          "type": "uint256"
        }
      ],
      "stateMutability": "view",
      "type": "function"
    },
    {
      "inputs": [
        {
          "internalType": "uint256",
          "name": "",
          "type": "uint256"
        }
      ],
      "name": "allProjectIds",
      "outputs": [
        {
          "internalType": "uint256",
          "name": "",
          "type": "uint256"
        }
      ],
      "stateMutability": "view",
      "type": "function"
    },
    {
      "inputs": [
        {
          "internalType": "uint256",
          "name": "",
          "type": "uint256"
        }
      ],
      "name": "allTransactionIds",
      "outputs": [
        {
          "internalType": "uint256",
          "name": "",
          "type": "uint256"
        }
      ],
      "stateMutability": "view",
      "type": "function"
    },
    {
      "inputs": [
        {
          "internalType": "uint256",
          "name": "listingId",
          "type": "uint256"
        },
        {
          "internalType": "uint256",
          "name": "amount",
          "type": "uint256"
        }
      ],
      "name": "buyCredits",
      "outputs": [],
      "stateMutability": "payable",
      "type": "function"
    },
    {
      "inputs": [
        {
          "internalType": "uint256",
          "name": "listingId",
          "type": "uint256"
        }
      ],
      "name": "cancelListing",
      "outputs": [],
      "stateMutability": "nonpayable",
      "type": "function"
    },
    {
      "inputs": [],
      "name": "carbonCreditNFT",
      "outputs": [
        {
          "internalType": "contract CarbonCreditNFT",
          "name": "",
          "type": "address"
        }
      ],
      "stateMutability": "view",
      "type": "function"
    },
    {
      "inputs": [
        {
          "internalType": "string",
          "name": "name",
          "type": "string"
        },
        {
          "internalType": "string",
          "name": "description",
          "type": "string"
        },
        {
          "internalType": "string",
          "name": "projectType",
          "type": "string"
        },
        {
          "internalType": "uint256",
          "name": "totalCredits",
          "type": "uint256"
        },
        {
          "internalType": "string",
          "name": "documentHash",
          "type": "string"
        }
      ],
      "name": "createProject",
      "outputs": [],
      "stateMutability": "nonpayable",
      "type": "function"
    },
    {
      "inputs": [
        {
          "internalType": "uint256",
          "name": "",
          "type": "uint256"
        }
      ],
      "name": "emissions",
      "outputs": [
        {
          "internalType": "uint256",
          "name": "id",
          "type": "uint256"
        },
        {
          "internalType": "address",
          "name": "user",
          "type": "address"
        },
        {
          "internalType": "uint256",
          "name": "amount",
          "type": "uint256"
        },
        {
          "internalType": "string",
          "name": "activity",
          "type": "string"
        },
        {
          "internalType": "uint256",
          "name": "timestamp",
          "type": "uint256"
        },
        {
          "internalType": "bool",
          "name": "verified",
          "type": "bool"
        },
        {
          "internalType": "address",
          "name": "verifier",
          "type": "address"
        }
      ],
      "stateMutability": "view",
      "type": "function"
    },
    {
      "inputs": [],
      "name": "getAllListings",
      "outputs": [
        {
          "components": [
            {
              "internalType": "uint256",
              "name": "id",
              "type": "uint256"
            },
            {
              "internalType": "uint256",
              "name": "projectId",
              "type": "uint256"
            },
            {
              "internalType": "address",
              "name": "seller",
              "type": "address"
            },
            {
              "internalType": "uint256",
              "name": "amount",
              "type": "uint256"
            },
            {
              "internalType": "uint256",
              "name": "pricePerCredit",
              "type": "uint256"
            },
            {
              "internalType": "bool",
              "name": "active",
              "type": "bool"
            },
            {
              "internalType": "uint256",
              "name": "createdAt",
              "type": "uint256"
            }
          ],
          "internalType": "struct CarbonCreditSystem.CreditListing[]",
          "name": "",
          "type": "tuple[]"
        }
      ],
      "stateMutability": "view",
      "type": "function"
    },
    {
      "inputs": [],
      "name": "getAllProjects",
      "outputs": [
        {
          "components": [
            {
              "internalType": "uint256",
              "name": "id",
              "type": "uint256"
            },
            {
              "internalType": "address",
              "name": "provider",
              "type": "address"
            },
            {
              "internalType": "string",
              "name": "name",
              "type": "string"
            },
            {
              "internalType": "string",
              "name": "description",
              "type": "string"
            },
            {
              "internalType": "string",
              "name": "projectType",
              "type": "string"
            },
            {
              "internalType": "uint256",
              "name": "totalCredits",
              "type": "uint256"
            },
            {
              "internalType": "uint256",
              "name": "availableCredits",
              "type": "uint256"
            },
            {
              "internalType": "uint256",
              "name": "pricePerCredit",
              "type": "uint256"
            },
            {
              "internalType": "bool",
              "name": "verified",
              "type": "bool"
            },
            {
              "internalType": "address",
              "name": "verifier",
              "type": "address"
            },
            {
              "internalType": "uint256",
              "name": "createdAt",
              "type": "uint256"
            },
            {
              "internalType": "string",
              "name": "documentHash",
              "type": "string"
            }
          ],
          "internalType": "struct CarbonCreditSystem.CarbonProject[]",
          "name": "",
          "type": "tuple[]"
        }
      ],
      "stateMutability": "view",
      "type": "function"
    },
    {
      "inputs": [],
      "name": "getPlatformStats",
      "outputs": [
        {
          "internalType": "uint256",
          "name": "totalEmissions",
          "type": "uint256"
        },
        {
          "internalType": "uint256",
          "name": "totalProjects",
          "type": "uint256"
        },
        {
          "internalType": "uint256",
          "name": "totalTransactions",
          "type": "uint256"
        },
        {
          "internalType": "uint256",
          "name": "totalCreditsIssued",
          "type": "uint256"
        }
      ],
      "stateMutability": "view",
      "type": "function"
    },
    {
      "inputs": [
        {
          "internalType": "bytes32",
          "name": "role",
          "type": "bytes32"
        }
      ],
      "name": "getRoleAdmin",
      "outputs": [
        {
          "internalType": "bytes32",
          "name": "",
          "type": "bytes32"
        }
      ],
      "stateMutability": "view",
      "type": "function"
    },
    {
      "inputs": [
        {
          "internalType": "address",
          "name": "user",
          "type": "address"
        },
        {
          "internalType": "uint256",
          "name": "projectId",
          "type": "uint256"
        }
      ],
      "name": "getUserCredits",
      "outputs": [
        {
          "internalType": "uint256",
          "name": "",
          "type": "uint256"
        }
      ],
      "stateMutability": "view",
      "type": "function"
    },
    {
      "inputs": [
        {
          "internalType": "address",
          "name": "user",
          "type": "address"
        }
      ],
      "name": "getUserEmissions",
      "outputs": [
        {
          "components": [
            {
              "internalType": "uint256",
              "name": "id",
              "type": "uint256"
            },
            {
              "internalType": "address",
              "name": "user",
              "type": "address"
            },
            {
              "internalType": "uint256",
              "name": "amount",
              "type": "uint256"
            },
            {
              "internalType": "string",
              "name": "activity",
              "type": "string"
            },
            {
              "internalType": "uint256",
              "name": "timestamp",
              "type": "uint256"
            },
            {
              "internalType": "bool",
              "name": "verified",
              "type": "bool"
            },
            {
              "internalType": "address",
              "name": "verifier",
              "type": "address"
            }
          ],
          "internalType": "struct CarbonCreditSystem.EmissionRecord[]",
          "name": "",
          "type": "tuple[]"
        }
      ],
      "stateMutability": "view",
      "type": "function"
    },
    {
      "inputs": [
        {
          "internalType": "address",
          "name": "user",
          "type": "address"
        }
      ],
      "name": "getUserTotalCredits",
      "outputs": [
        {
          "internalType": "uint256",
          "name": "",
          "type": "uint256"
        }
      ],
      "stateMutability": "view",
      "type": "function"
    },
    {
      "inputs": [
        {
          "internalType": "bytes32",
          "name": "role",
          "type": "bytes32"
        },
        {
          "internalType": "address",
          "name": "account",
          "type": "address"
        }
      ],
      "name": "grantRole",
      "outputs": [],
      "stateMutability": "nonpayable",
      "type": "function"
    },
    {
      "inputs": [
        {
          "internalType": "bytes32",
          "name": "role",
          "type": "bytes32"
        },
        {
          "internalType": "address",
          "name": "account",
          "type": "address"
        }
      ],
      "name": "hasRole",
      "outputs": [
        {
          "internalType": "bool",
          "name": "",
          "type": "bool"
        }
      ],
      "stateMutability": "view",
      "type": "function"
    },
    {
      "inputs": [
        {
          "internalType": "uint256",
          "name": "projectId",
          "type": "uint256"
        },
        {
          "internalType": "uint256",
          "name": "amount",
          "type": "uint256"
        },
        {
          "internalType": "string",
          "name": "tokenURI",
          "type": "string"
        }
      ],
      "name": "issueCredits",
      "outputs": [],
      "stateMutability": "nonpayable",
      "type": "function"
    },
    {
      "inputs": [
        {
          "internalType": "uint256",
          "name": "projectId",
          "type": "uint256"
        },
        {
          "internalType": "uint256",
          "name": "amount",
          "type": "uint256"
        },
        {
          "internalType": "uint256",
          "name": "pricePerCredit",
          "type": "uint256"
        }
      ],
      "name": "listCredits",
      "outputs": [],
      "stateMutability": "nonpayable",
      "type": "function"
    },
    {
      "inputs": [
        {
          "internalType": "uint256",
          "name": "",
          "type": "uint256"
        }
      ],
      "name": "listings",
      "outputs": [
        {
          "internalType": "uint256",
          "name": "id",
          "type": "uint256"
        },
        {
          "internalType": "uint256",
          "name": "projectId",
          "type": "uint256"
        },
        {
          "internalType": "address",
          "name": "seller",
          "type": "address"
        },
        {
          "internalType": "uint256",
          "name": "amount",
          "type": "uint256"
        },
        {
          "internalType": "uint256",
          "name": "pricePerCredit",
          "type": "uint256"
        },
        {
          "internalType": "bool",
          "name": "active",
          "type": "bool"
        },
        {
          "internalType": "uint256",
          "name": "createdAt",
          "type": "uint256"
        }
      ],
      "stateMutability": "view",
      "type": "function"
    },
    {
      "inputs": [
        {
          "internalType": "uint256",
          "name": "",
          "type": "uint256"
        }
      ],
      "name": "projects",
      "outputs": [
        {
          "internalType": "uint256",
          "name": "id",
          "type": "uint256"
        },
        {
          "internalType": "address",
          "name": "provider",
          "type": "address"
        },
        {
          "internalType": "string",
          "name": "name",
          "type": "string"
        },
        {
          "internalType": "string",
          "name": "description",
          "type": "string"
        },
        {
          "internalType": "string",
          "name": "projectType",
          "type": "string"
        },
        {
          "internalType": "uint256",
          "name": "totalCredits",
          "type": "uint256"
        },
        {
          "internalType": "uint256",
          "name": "availableCredits",
          "type": "uint256"
        },
        {
          "internalType": "uint256",
          "name": "pricePerCredit",
          "type": "uint256"
        },
        {
          "internalType": "bool",
          "name": "verified",
          "type": "bool"
        },
        {
          "internalType": "address",
          "name": "verifier",
          "type": "address"
        },
        {
          "internalType": "uint256",
          "name": "createdAt",
          "type": "uint256"
        },
        {
          "internalType": "string",
          "name": "documentHash",
          "type": "string"
        }
      ],
      "stateMutability": "view",
      "type": "function"
    },
    {
      "inputs": [
        {
          "internalType": "uint256",
          "name": "amount",
          "type": "uint256"
        },
        {
          "internalType": "string",
          "name": "activity",
          "type": "string"
        }
      ],
      "name": "recordEmission",
      "outputs": [],
      "stateMutability": "nonpayable",
      "type": "function"
    },
    {
      "inputs": [
        {
          "internalType": "address",
          "name": "account",
          "type": "address"
        }
      ],
      "name": "removeProvider",
      "outputs": [],
      "stateMutability": "nonpayable",
      "type": "function"
    },
    {
      "inputs": [
        {
          "internalType": "address",
          "name": "account",
          "type": "address"
        }
      ],
      "name": "removeVerifier",
      "outputs": [],
      "stateMutability": "nonpayable",
      "type": "function"
    },
    {
      "inputs": [
        {
          "internalType": "bytes32",
          "name": "role",
          "type": "bytes32"
        },
        {
          "internalType": "address",
          "name": "callerConfirmation",
          "type": "address"
        }
      ],
      "name": "renounceRole",
      "outputs": [],
      "stateMutability": "nonpayable",
      "type": "function"
    },
    {
      "inputs": [
        {
          "internalType": "bytes32",
          "name": "role",
          "type": "bytes32"
        },
        {
          "internalType": "address",
          "name": "account",
          "type": "address"
        }
      ],
      "name": "revokeRole",
      "outputs": [],
      "stateMutability": "nonpayable",
      "type": "function"
    },
    {
      "inputs": [
        {
          "internalType": "bytes4",
          "name": "interfaceId",
          "type": "bytes4"
        }
      ],
      "name": "supportsInterface",
      "outputs": [
        {
          "internalType": "bool",
          "name": "",
          "type": "bool"
        }
      ],
      "stateMutability": "view",
      "type": "function"
    },
    {
      "inputs": [
        {
          "internalType": "uint256",
          "name": "",
          "type": "uint256"
        }
      ],
      "name": "transactions",
      "outputs": [
        {
          "internalType": "uint256",
          "name": "id",
          "type": "uint256"
        },
        {
          "internalType": "address",
          "name": "buyer",
          "type": "address"
        },
        {
          "internalType": "address",
          "name": "seller",
          "type": "address"
        },
        {
          "internalType": "uint256",
          "name": "projectId",
          "type": "uint256"
        },
        {
          "internalType": "uint256",
          "name": "amount",
          "type": "uint256"
        },
        {
          "internalType": "uint256",
          "name": "totalPrice",
          "type": "uint256"
        },
        {
          "internalType": "uint256",
          "name": "timestamp",
          "type": "uint256"
        }
      ],
      "stateMutability": "view",
      "type": "function"
    },
    {
      "inputs": [
        {
          "internalType": "address",
          "name": "",
          "type": "address"
        },
        {
          "internalType": "uint256",
          "name": "",
          "type": "uint256"
        }
      ],
      "name": "userCredits",
      "outputs": [
        {
          "internalType": "uint256",
          "name": "",
          "type": "uint256"
        }
      ],
      "stateMutability": "view",
      "type": "function"
    },
    {
      "inputs": [
        {
          "internalType": "address",
          "name": "",
          "type": "address"
        },
        {
          "internalType": "uint256",
          "name": "",
          "type": "uint256"
        }
      ],
      "name": "userEmissions",
      "outputs": [
        {
          "internalType": "uint256",
          "name": "",
          "type": "uint256"
        }
      ],
      "stateMutability": "view",
      "type": "function"
    },
    {
      "inputs": [
        {
          "internalType": "uint256",
          "name": "emissionId",
          "type": "uint256"
        }
      ],
      "name": "verifyEmission",
      "outputs": [],
      "stateMutability": "nonpayable",
      "type": "function"
    },
    {
      "inputs": [
        {
          "internalType": "uint256",
          "name": "projectId",
          "type": "uint256"
        }
      ],
      "name": "verifyProject",
      "outputs": [],
      "stateMutability": "nonpayable",
      "type": "function"
    }
  ],
  "bytecode": "0x60a060405234801561001057600080fd5b5060405161372b38038061372b83398101604081905261002f916101ae565b600180556001600160a01b03811661008d5760405162461bcd60e51b815260206004820152601c60248201527f496e76616c6964204e465420636f6e7472616374206164647265737300000000604482015260640160405180910390fd5b6001600160a01b0381166080526100a5600033610102565b506100d07f0ce23c3e399818cfee81a7ab0880f714e53d7672b08df0fa62f2843416e1ea0933610102565b506100fb7f18d9ff454de989bd126b06bd404b47ede75f9e65543e94e8d212f89d7dcbb87c33610102565b50506101de565b6000828152602081815260408083206001600160a01b038516845290915281205460ff166101a4576000838152602081815260408083206001600160a01b03861684529091529020805460ff1916600117905561015c3390565b6001600160a01b0316826001600160a01b0316847f2f8788117e7eff1d82e926ec794901d17c78024a50270940304540a733656f0d60405160405180910390a45060016101a8565b5060005b92915050565b6000602082840312156101c057600080fd5b81516001600160a01b03811681146101d757600080fd5b9392505050565b60805161352b6102006000396000818161023b0152610d2e015261352b6000f3fe6080604052600436106102245760003560e01c80639000b3d611610123578063c121cff0116100ab578063e7705db61161006f578063e7705db614610820578063eab03ca214610842578063ebc3492914610862578063ed1ca91a14610882578063fab56d20146108a257600080fd5b8063c121cff0146106c2578063ca2dfd0a14610705578063cb6da67014610725578063d547741f14610758578063de74e57b1461077857600080fd5b8063a1c809bc116100f2578063a1c809bc1461062b578063a217fddf1461064b578063ae73ccec14610660578063b8ff383d14610682578063c0d32bde146106a257600080fd5b80639000b3d61461052657806391d1485414610546578063953eb28f146105665780639ace38c21461058657600080fd5b80632a4f6f96116101b1578063479c845711610175578063479c8457146104915780634ba67bab146104a457806380d03829146104c45780638a355a57146104e65780638b9783cd1461050657600080fd5b80632a4f6f96146103f15780632f2ff15d14610411578063305a67a81461043157806336568abe1461045157806346e2577a1461047157600080fd5b8063136d8883116101f8578063136d88831461030457806317a483a314610339578063248a9ca31461037f57806324c20a34146103af5780632954eda5146103d157600080fd5b80623f2d021461022957806301ffc9a71461027a578063107046bd146102aa57806310e34f6f146102e2575b600080fd5b34801561023557600080fd5b5061025d7f000000000000000000000000000000000000000000000000000000000000000081565b6040516001600160a01b0390911681526020015b60405180910390f35b34801561028657600080fd5b5061029a610295366004612a5a565b6108cf565b6040519015158152602001610271565b3480156102b657600080fd5b506102ca6102c5366004612a8b565b610906565b6040516102719c9b9a99989796959493929190612aea565b3480156102ee57600080fd5b506103026102fd366004612c40565b610b9f565b005b34801561031057600080fd5b50610319610e10565b604080519485526020850193909352918301526060820152608001610271565b34801561034557600080fd5b50610371610354366004612cac565b600960209081526000928352604080842090915290825290205481565b604051908152602001610271565b34801561038b57600080fd5b5061037161039a366004612a8b565b60009081526020819052604090206001015490565b3480156103bb57600080fd5b506103716000805160206134b683398151915281565b3480156103dd57600080fd5b506103026103ec366004612cd6565b610eb6565b3480156103fd57600080fd5b5061037161040c366004612a8b565b6110ad565b34801561041d57600080fd5b5061030261042c366004612d1d565b6110ce565b34801561043d57600080fd5b5061030261044c366004612a8b565b6110f9565b34801561045d57600080fd5b5061030261046c366004612d1d565b611210565b34801561047d57600080fd5b5061030261048c366004612d49565b611248565b61030261049f366004612d64565b61126f565b3480156104b057600080fd5b506103716104bf366004612a8b565b611622565b3480156104d057600080fd5b506104d9611632565b6040516102719190612d86565b3480156104f257600080fd5b50610302610501366004612d49565b611a29565b34801561051257600080fd5b50610371610521366004612d49565b611a4c565b34801561053257600080fd5b50610302610541366004612d49565b611ac0565b34801561055257600080fd5b5061029a610561366004612d1d565b611ae3565b34801561057257600080fd5b50610371610581366004612a8b565b611b0c565b34801561059257600080fd5b506105ea6105a1366004612a8b565b600a60205260009081526040902080546001820154600283015460038401546004850154600586015460069096015494956001600160a01b039485169594909316939192909187565b604080519788526001600160a01b03968716602089015294909516938601939093526060850191909152608084015260a083015260c082015260e001610271565b34801561063757600080fd5b50610302610646366004612a8b565b611b1c565b34801561065757600080fd5b50610371600081565b34801561066c57600080fd5b50610675611c47565b6040516102719190612ecc565b34801561068e57600080fd5b5061037161069d366004612a8b565b611e5f565b3480156106ae57600080fd5b506103716106bd366004612cac565b611e6f565b3480156106ce57600080fd5b506103716106dd366004612cac565b6001600160a01b03919091166000908152600960209081526040808320938352929052205490565b34801561071157600080fd5b50610302610720366004612d49565b611ea0565b34801561073157600080fd5b50610745610740366004612a8b565b611ec3565b6040516102719796959493929190612f5d565b34801561076457600080fd5b50610302610773366004612d1d565b611f9f565b34801561078457600080fd5b506107dd610793366004612a8b565b6008602052600090815260409020805460018201546002830154600384015460048501546005860154600690960154949593946001600160a01b03909316939192909160ff169087565b6040805197885260208801969096526001600160a01b03909416948601949094526060850191909152608084015290151560a083015260c082015260e001610271565b34801561082c57600080fd5b506103716000805160206134d683398151915281565b34801561084e57600080fd5b5061030261085d366004612fb2565b611fc4565b34801561086e57600080fd5b5061030261087d36600461307c565b612269565b34801561088e57600080fd5b5061030261089d366004612a8b565b6124f2565b3480156108ae57600080fd5b506108c26108bd366004612d49565b61268d565b60405161027191906130a8565b60006001600160e01b03198216637965db0b60e01b148061090057506301ffc9a760e01b6001600160e01b03198316145b92915050565b60076020526000908152604090208054600182015460028301805492936001600160a01b03909216926109389061315d565b80601f01602080910402602001604051908101604052809291908181526020018280546109649061315d565b80156109b15780601f10610986576101008083540402835291602001916109b1565b820191906000526020600020905b81548152906001019060200180831161099457829003601f168201915b5050505050908060030180546109c69061315d565b80601f01602080910402602001604051908101604052809291908181526020018280546109f29061315d565b8015610a3f5780601f10610a1457610100808354040283529160200191610a3f565b820191906000526020600020905b815481529060010190602001808311610a2257829003601f168201915b505050505090806004018054610a549061315d565b80601f0160208091040260200160405190810160405280929190818152602001828054610a809061315d565b8015610acd5780601f10610aa257610100808354040283529160200191610acd565b820191906000526020600020905b815481529060010190602001808311610ab057829003601f168201915b5050505060058301546006840154600785015460088601546009870154600a8801805497989597949650929460ff8316946101009093046001600160a01b0316939192909190610b1c9061315d565b80601f0160208091040260200160405190810160405280929190818152602001828054610b489061315d565b8015610b955780601f10610b6a57610100808354040283529160200191610b95565b820191906000526020600020905b815481529060010190602001808311610b7857829003601f168201915b505050505090508c565b6000805160206134d6833981519152610bb7816128ed565b6000848152600760205260408120549003610c125760405162461bcd60e51b8152602060048201526016602482015275141c9bda9958dd08191bd95cc81b9bdd08195e1a5cdd60521b60448201526064015b60405180910390fd5b60008481526007602052604090206008015460ff16610c6a5760405162461bcd60e51b8152602060048201526014602482015273141c9bda9958dd081b9bdd081d995c9a599a595960621b6044820152606401610c09565b60008311610c8a5760405162461bcd60e51b8152600401610c0990613191565b600084815260076020526040902060060154831115610ceb5760405162461bcd60e51b815260206004820152601960248201527f4578636565647320617661696c61626c652063726564697473000000000000006044820152606401610c09565b60008481526007602052604081206009810154909190610d0f9063096601806131de565b6001830154604051638d60f18f60e01b81529192506001600160a01b037f0000000000000000000000000000000000000000000000000000000000000000811692638d60f18f92610d779216908a908a9042906004808b019160038c01918b918f9101613274565b600060405180830381600087803b158015610d9157600080fd5b505af1158015610da5573d6000803e3d6000fd5b5050505084826006016000828254610dbd919061330c565b909155505060018201546040518681526001600160a01b039091169087907f0f5eeceedc2aa2eab0f45a8335f978a22b5cb19f4389d50dfdf5f954359f05469060200160405180910390a3505050505050565b600b54600c54600e546000805b600c54811015610eaf5760076000600c8381548110610e3e57610e3e61331f565b6000918252602080832090910154835282019290925260400190206008015460ff1615610ea75760076000600c8381548110610e7c57610e7c61331f565b906000526020600020015481526020019081526020016000206005015482610ea491906131de565b91505b600101610e1d565b5090919293565b60008211610ed65760405162461bcd60e51b8152600401610c0990613191565b6000815111610f275760405162461bcd60e51b815260206004820152601860248201527f41637469766974792063616e6e6f7420626520656d70747900000000000000006044820152606401610c09565b60028054906000610f3783613335565b9091555050600280546040805160e08101825282815233602080830191825282840188815260608401888152426080860152600060a0860181905260c086018190528781526005909352949091208351815591516001830180546001600160a01b0319166001600160a01b0390921691909117905551948101949094559051919290916003820190610fc9908261339c565b506080820151600482015560a08201516005909101805460c0909301516001600160a01b031661010002610100600160a81b0319921515929092166001600160a81b031990931692909217179055336000818152600660209081526040808320805460018181018355918552928420909201859055600b805492830181559092527f0175b7a638427703f0dbe7bb9bbf987a2551717b34e79f33b5b1008d1fa01db9018390555182907e64e2731091f5f430bde3311651d1a4ea1932b868b1a6cfff719e56fd6008ef906110a0908790879061345b565b60405180910390a3505050565b600e81815481106110bd57600080fd5b600091825260209091200154905081565b6000828152602081905260409020600101546110e9816128ed565b6110f383836128fa565b50505050565b600081815260086020526040902060028101546001600160a01b031633146111545760405162461bcd60e51b815260206004820152600e60248201526d2737ba103a34329039b2b63632b960911b6044820152606401610c09565b600581015460ff1661119d5760405162461bcd60e51b81526020600482015260126024820152714c697374696e67206e6f742061637469766560701b6044820152606401610c09565b60058101805460ff19169055600381015433600090815260096020908152604080832060018601548452909152812080549091906111dc9084906131de565b909155505060405182907f411aee90354c51b1b04cd563fcab2617142a9d50da19232d888547c8a1b7fd8a90600090a25050565b6001600160a01b03811633146112395760405163334bd91960e11b815260040160405180910390fd5b611243828261298c565b505050565b6000611253816128ed565b61126b6000805160206134b6833981519152836110ce565b5050565b6112776129f7565b6000828152600860205260409020600581015460ff166112ce5760405162461bcd60e51b81526020600482015260126024820152714c697374696e67206e6f742061637469766560701b6044820152606401610c09565b6000821180156112e2575080600301548211155b61131f5760405162461bcd60e51b815260206004820152600e60248201526d125b9d985b1a5908185b5bdd5b9d60921b6044820152606401610c09565b6000816004015483611331919061347c565b90508034101561137a5760405162461bcd60e51b8152602060048201526014602482015273125b9cdd59999a58da595b9d081c185e5b595b9d60621b6044820152606401610c09565b8282600301600082825461138e919061330c565b909155505060038201546000036113ac5760058201805460ff191690555b33600090815260096020908152604080832060018601548452909152812080548592906113da9084906131de565b909155505060028201546040516001600160a01b039091169082156108fc029083906000818181858888f1935050505015801561141b573d6000803e3d6000fd5b508034111561145c57336108fc611432833461330c565b6040518115909202916000818181858888f1935050505015801561145a573d6000803e3d6000fd5b505b600e5460009061146d9060016131de565b90506040518060e00160405280828152602001336001600160a01b031681526020018460020160009054906101000a90046001600160a01b03166001600160a01b031681526020018460010154815260200185815260200183815260200142815250600a60008381526020019081526020016000206000820151816000015560208201518160010160006101000a8154816001600160a01b0302191690836001600160a01b0316021790555060408201518160020160006101000a8154816001600160a01b0302191690836001600160a01b03160217905550606082015181600301556080820151816004015560a0820151816005015560c08201518160060155905050600e8190806001815401808255809150506001900390600052602060002001600090919091909150558260020160009054906101000a90046001600160a01b03166001600160a01b0316336001600160a01b0316827f3b601e39167759d245ec7057d319bb00a801e154a118eee08f7c77aa44f24e6a8660010154888760405161160e939291909283526020830191909152604082015260600190565b60405180910390a450505061126b60018055565b600b81815481106110bd57600080fd5b600c5460609060009067ffffffffffffffff81111561165357611653612b9b565b6040519080825280602002602001820160405280156116fc57816020015b6116e96040518061018001604052806000815260200160006001600160a01b0316815260200160608152602001606081526020016060815260200160008152602001600081526020016000815260200160001515815260200160006001600160a01b0316815260200160008152602001606081525090565b8152602001906001900390816116715790505b50905060005b600c54811015611a235760076000600c83815481106117235761172361331f565b6000918252602080832090910154835282810193909352604091820190208151610180810183528154815260018201546001600160a01b03169381019390935260028101805491928401916117779061315d565b80601f01602080910402602001604051908101604052809291908181526020018280546117a39061315d565b80156117f05780601f106117c5576101008083540402835291602001916117f0565b820191906000526020600020905b8154815290600101906020018083116117d357829003601f168201915b505050505081526020016003820180546118099061315d565b80601f01602080910402602001604051908101604052809291908181526020018280546118359061315d565b80156118825780601f1061185757610100808354040283529160200191611882565b820191906000526020600020905b81548152906001019060200180831161186557829003601f168201915b5050505050815260200160048201805461189b9061315d565b80601f01602080910402602001604051908101604052809291908181526020018280546118c79061315d565b80156119145780601f106118e957610100808354040283529160200191611914565b820191906000526020600020905b8154815290600101906020018083116118f757829003601f168201915b5050509183525050600582015460208201526006820154604082015260078201546060820152600882015460ff81161515608083015261010090046001600160a01b031660a0820152600982015460c0820152600a8201805460e09092019161197c9061315d565b80601f01602080910402602001604051908101604052809291908181526020018280546119a89061315d565b80156119f55780601f106119ca576101008083540402835291602001916119f5565b820191906000526020600020905b8154815290600101906020018083116119d857829003601f168201915b505050505081525050828281518110611a1057611a1061331f565b6020908102919091010152600101611702565b50919050565b6000611a34816128ed565b61126b6000805160206134b683398151915283611f9f565b600080805b600c54811015611ab9576001600160a01b0384166000908152600960205260408120600c805491929184908110611a8a57611a8a61331f565b906000526020600020015481526020019081526020016000205482611aaf91906131de565b9150600101611a51565b5092915050565b6000611acb816128ed565b61126b6000805160206134d6833981519152836110ce565b6000918252602082815260408084206001600160a01b0393909316845291905290205460ff1690565b600c81815481106110bd57600080fd5b6000805160206134d6833981519152611b34816128ed565b6000828152600560205260408120549003611b915760405162461bcd60e51b815260206004820152601960248201527f456d697373696f6e207265636f7264206e6f7420666f756e64000000000000006044820152606401610c09565b6000828152600560208190526040909120015460ff1615611be75760405162461bcd60e51b815260206004820152601060248201526f105b1c9958591e481d995c9a599a595960821b6044820152606401610c09565b600082815260056020819052604080832090910180543361010081026001600160a81b0319909216919091176001179091559051909184917f413827bb26c666a3c5a6e2fe2e3e31f19dafd112487ab65a1f4d84e038c275ce9190a35050565b60606000805b600d54811015611cab5760086000600d8381548110611c6e57611c6e61331f565b6000918252602080832090910154835282019290925260400190206005015460ff1615611ca35781611c9f81613335565b9250505b600101611c4d565b5060008167ffffffffffffffff811115611cc757611cc7612b9b565b604051908082528060200260200182016040528015611d4357816020015b611d306040518060e00160405280600081526020016000815260200160006001600160a01b031681526020016000815260200160008152602001600015158152602001600081525090565b815260200190600190039081611ce55790505b5090506000805b600d54811015611e565760086000600d8381548110611d6b57611d6b61331f565b6000918252602080832090910154835282019290925260400190206005015460ff1615611e4e5760086000600d8381548110611da957611da961331f565b600091825260208083209091015483528281019390935260409182019020815160e0810183528154815260018201549381019390935260028101546001600160a01b0316918301919091526003810154606083015260048101546080830152600581015460ff16151560a08301526006015460c08201528351849084908110611e3457611e3461331f565b60200260200101819052508180611e4a90613335565b9250505b600101611d4a565b50909392505050565b600d81815481106110bd57600080fd5b60066020528160005260406000208181548110611e8b57600080fd5b90600052602060002001600091509150505481565b6000611eab816128ed565b61126b6000805160206134d683398151915283611f9f565b600560205260009081526040902080546001820154600283015460038401805493946001600160a01b0390931693919291611efd9061315d565b80601f0160208091040260200160405190810160405280929190818152602001828054611f299061315d565b8015611f765780601f10611f4b57610100808354040283529160200191611f76565b820191906000526020600020905b815481529060010190602001808311611f5957829003601f168201915b50505050600483015460059093015491929160ff8116915061010090046001600160a01b031687565b600082815260208190526040902060010154611fba816128ed565b6110f3838361298c565b6000805160206134b6833981519152611fdc816128ed565b60008651116120245760405162461bcd60e51b81526020600482015260146024820152734e616d652063616e6e6f7420626520656d70747960601b6044820152606401610c09565b600083116120805760405162461bcd60e51b8152602060048201526024808201527f546f74616c2063726564697473206d75737420626520677265617465722074686044820152630616e20360e41b6064820152608401610c09565b6003805490600061209083613335565b909155505060035460408051610180810182528281523360208083019182528284018b8152606084018b9052608084018a905260a08401899052600060c0850181905260e085018190526101008501819052610120850181905242610140860152610160850189905286815260079092529390208251815590516001820180546001600160a01b0319166001600160a01b039092169190911790559151909190600282019061213f908261339c565b5060608201516003820190612154908261339c565b5060808201516004820190612169908261339c565b5060a0820151600582015560c0820151600682015560e08201516007820155610100808301516008830180546101208601516001600160a81b0319909116921515610100600160a81b031916929092176001600160a01b039092169092021790556101408201516009820155610160820151600a8201906121ea908261339c565b5050600c80546001810182556000919091527fdf6966c971051c3d54ec59162606531493a51404a002842f56009d7e5cf4a8c70182905550604051339082907f51d08cb6cfa640a387210fb69df925dfb70169ae7373f8ecd40b977b0c800d9a90612258908b908990613493565b60405180910390a350505050505050565b60008381526007602052604090206008015460ff166122c15760405162461bcd60e51b8152602060048201526014602482015273141c9bda9958dd081b9bdd081d995c9a599a595960621b6044820152606401610c09565b3360009081526009602090815260408083208684529091529020548211156123225760405162461bcd60e51b8152602060048201526014602482015273496e73756666696369656e74206372656469747360601b6044820152606401610c09565b600082116123425760405162461bcd60e51b8152600401610c0990613191565b600081116123925760405162461bcd60e51b815260206004820152601c60248201527f5072696365206d7573742062652067726561746572207468616e2030000000006044820152606401610c09565b600480549060006123a283613335565b9091555050600480546040805160e081018252828152602080820188815233838501818152606085018a8152608086018a8152600160a088018181524260c08a0190815260008c815260088a528b81209a518b559751928a019290925593516002890180546001600160a01b0319166001600160a01b039092169190911790559151600388015551988601989098555160058501805460ff1916911515919091179055955160069093019290925593815260098452818120878252909352822080549192859261247390849061330c565b9091555050600d80546001810182556000919091527fd7b6990105719101dabeb77144f2a3385c8033acd3af97e9423a695e81ad1eb50181905560408051848152602081018490523391869184917fb3125be755c9d03f04e13494efa66f8729c5f85b2852c2a692560260b5839aa1910160405180910390a450505050565b6000805160206134d683398151915261250a816128ed565b600082815260076020526040812054900361255b5760405162461bcd60e51b8152602060048201526011602482015270141c9bda9958dd081b9bdd08199bdd5b99607a1b6044820152606401610c09565b60008281526007602052604090206008015460ff16156125b05760405162461bcd60e51b815260206004820152601060248201526f105b1c9958591e481d995c9a599a595960821b6044820152606401610c09565b600082815260076020908152604080832060088101805460016001600160a81b0319909116610100339081029190911782179092556005830154600684018190559201546001600160a01b03168552600984528285208786529093528184205551909184917fa8993bbe79af1071dc039c1144feccfba01680aa0fdd10a4e92f1a12533e895c9190a3817f83a3ded54d9fdffb8d19d3c1f853473fdb386f57007e2b9e782ee207c34cbf04600760008581526020019081526020016000206005015460405161268191815260200190565b60405180910390a25050565b6001600160a01b03811660009081526006602090815260408083208054825181850281018501909352808352606094938301828280156126ec57602002820191906000526020600020905b8154815260200190600101908083116126d8575b505050505090506000815167ffffffffffffffff81111561270f5761270f612b9b565b60405190808252806020026020018201604052801561277557816020015b6040805160e081018252600080825260208083018290529282018190526060808301526080820181905260a0820181905260c0820152825260001990920191018161272d5790505b50905060005b82518110156128e5576005600084838151811061279a5761279a61331f565b602002602001015181526020019081526020016000206040518060e0016040529081600082015481526020016001820160009054906101000a90046001600160a01b03166001600160a01b03166001600160a01b031681526020016002820154815260200160038201805461280e9061315d565b80601f016020809104026020016040519081016040528092919081815260200182805461283a9061315d565b80156128875780601f1061285c57610100808354040283529160200191612887565b820191906000526020600020905b81548152906001019060200180831161286a57829003601f168201915b50505091835250506004820154602082015260059091015460ff81161515604083015261010090046001600160a01b031660609091015282518390839081106128d2576128d261331f565b602090810291909101015260010161277b565b509392505050565b6128f78133612a21565b50565b60006129068383611ae3565b612984576000838152602081815260408083206001600160a01b03861684529091529020805460ff1916600117905561293c3390565b6001600160a01b0316826001600160a01b0316847f2f8788117e7eff1d82e926ec794901d17c78024a50270940304540a733656f0d60405160405180910390a4506001610900565b506000610900565b60006129988383611ae3565b15612984576000838152602081815260408083206001600160a01b0386168085529252808320805460ff1916905551339286917ff6391f5c32d9c69d2a47ea670b442974b53935d1edc7fd64eb21e047a839171b9190a4506001610900565b600260015403612a1a57604051633ee5aeb560e01b815260040160405180910390fd5b6002600155565b612a2b8282611ae3565b61126b5760405163e2517d3f60e01b81526001600160a01b038216600482015260248101839052604401610c09565b600060208284031215612a6c57600080fd5b81356001600160e01b031981168114612a8457600080fd5b9392505050565b600060208284031215612a9d57600080fd5b5035919050565b6000815180845260005b81811015612aca57602081850181015186830182015201612aae565b506000602082860101526020601f19601f83011685010191505092915050565b8c81526001600160a01b038c16602082015261018060408201819052600090612b159083018d612aa4565b8281036060840152612b27818d612aa4565b90508281036080840152612b3b818c612aa4565b90508960a08401528860c08401528760e0840152612b5e61010084018815159052565b6001600160a01b03861661012084015284610140840152828103610160840152612b888185612aa4565b9f9e505050505050505050505050505050565b634e487b7160e01b600052604160045260246000fd5b600082601f830112612bc257600080fd5b813567ffffffffffffffff811115612bdc57612bdc612b9b565b604051601f8201601f19908116603f0116810167ffffffffffffffff81118282101715612c0b57612c0b612b9b565b604052818152838201602001851015612c2357600080fd5b816020850160208301376000918101602001919091529392505050565b600080600060608486031215612c5557600080fd5b8335925060208401359150604084013567ffffffffffffffff811115612c7a57600080fd5b612c8686828701612bb1565b9150509250925092565b80356001600160a01b0381168114612ca757600080fd5b919050565b60008060408385031215612cbf57600080fd5b612cc883612c90565b946020939093013593505050565b60008060408385031215612ce957600080fd5b82359150602083013567ffffffffffffffff811115612d0757600080fd5b612d1385828601612bb1565b9150509250929050565b60008060408385031215612d3057600080fd5b82359150612d4060208401612c90565b90509250929050565b600060208284031215612d5b57600080fd5b612a8482612c90565b60008060408385031215612d7757600080fd5b50508035926020909101359150565b6000602082016020835280845180835260408501915060408160051b86010192506020860160005b82811015612ec057603f198786030184528151805186526020810151612ddf60208801826001600160a01b03169052565b5060408101516101806040880152612dfb610180880182612aa4565b905060608201518782036060890152612e148282612aa4565b91505060808201518782036080890152612e2e8282612aa4565b91505060a082015160a088015260c082015160c088015260e082015160e0880152610100820151612e6461010089018215159052565b50610120820151612e816101208901826001600160a01b03169052565b506101408201516101408801526101608201519150868103610160880152612ea98183612aa4565b965050506020938401939190910190600101612dae565b50929695505050505050565b602080825282518282018190526000918401906040840190835b81811015612f52578351805184526020810151602085015260018060a01b036040820151166040850152606081015160608501526080810151608085015260a0810151151560a085015260c081015160c08501525060e083019250602084019350600181019050612ee6565b509095945050505050565b87815260018060a01b038716602082015285604082015260e060608201526000612f8a60e0830187612aa4565b60808301959095525091151560a08301526001600160a01b031660c090910152949350505050565b600080600080600060a08688031215612fca57600080fd5b853567ffffffffffffffff811115612fe157600080fd5b612fed88828901612bb1565b955050602086013567ffffffffffffffff81111561300a57600080fd5b61301688828901612bb1565b945050604086013567ffffffffffffffff81111561303357600080fd5b61303f88828901612bb1565b93505060608601359150608086013567ffffffffffffffff81111561306357600080fd5b61306f88828901612bb1565b9150509295509295909350565b60008060006060848603121561309157600080fd5b505081359360208301359350604090920135919050565b6000602082016020835280845180835260408501915060408160051b86010192506020860160005b82811015612ec057603f1987860301845281518051865260018060a01b03602082015116602087015260408101516040870152606081015160e0606088015261311c60e0880182612aa4565b6080838101519089015260a08084015115159089015260c0928301516001600160a01b031692909701919091525060209384019391909101906001016130d0565b600181811c9082168061317157607f821691505b602082108103611a2357634e487b7160e01b600052602260045260246000fd5b6020808252601d908201527f416d6f756e74206d7573742062652067726561746572207468616e2030000000604082015260600190565b634e487b7160e01b600052601160045260246000fd5b80820180821115610900576109006131c8565b600081546131fe8161315d565b80855260018216801561321857600181146132345761326b565b60ff1983166020870152602082151560051b870101935061326b565b84600052602060002060005b838110156132625781546020828a010152600182019150602081019050613240565b87016020019450505b50505092915050565b60018060a01b03891681528760208201528660408201528560608201526101206080820152600d6101208201526c10d85c989bdb8813d9999cd95d609a1b61014082015261016060a082015260006132d06101608301876131f1565b82810360c08401526132e281876131f1565b90508460e08401528281036101008401526132fd8185612aa4565b9b9a5050505050505050505050565b81810381811115610900576109006131c8565b634e487b7160e01b600052603260045260246000fd5b600060018201613347576133476131c8565b5060010190565b601f82111561124357806000526020600020601f840160051c810160208510156133755750805b601f840160051c820191505b818110156133955760008155600101613381565b5050505050565b815167ffffffffffffffff8111156133b6576133b6612b9b565b6133ca816133c4845461315d565b8461334e565b6020601f8211600181146133fe57600083156133e65750848201515b600019600385901b1c1916600184901b178455613395565b600084815260208120601f198516915b8281101561342e578785015182556020948501946001909201910161340e565b508482101561344c5786840151600019600387901b60f8161c191681555b50505050600190811b01905550565b8281526040602082015260006134746040830184612aa4565b949350505050565b8082028115828204841417610900576109006131c8565b6040815260006134a66040830185612aa4565b9050826020830152939250505056fe18d9ff454de989bd126b06bd404b47ede75f9e65543e94e8d212f89d7dcbb87c0ce23c3e399818cfee81a7ab0880f714e53d7672b08df0fa62f2843416e1ea09a2646970667358221220044d48aaf60fb20cbd98ca8674df659bc0ebb8f297c2cbe4f6d7b82ca04aa0b864736f6c634300081c0033",
  "linkReferences": {},
  "deployedLinkReferences": {}
}